:400000000080002011000000E9010000E901000008B5044B1A6803F53F5302331A6000F0E5F800BFFA46004010B5054C237833B9044B13B10448AFF300800123237010BDC6
:400040006081FF1F00000000882A0000084B10B51BB108480849AFF300800848036803B910BD074B002BFBD0BDE81040184700BF00000000882A00006481FF1F0881FF1F2D
:40008000000000002DE9F04782B0544B93E8030000908DF8041000248DF8054062B602F0F5FA00F069FB2046214600F073FB4C4800F008FB02F0ACF802F0EEF82046214653
:4000C00000F08EFC00F0D0FC0028FBD000F0B0FD4FF00008FF2745464646444602F024FA02F002F801F046FF002872D0022002F02DF98246012002F029F98146002002F080
:4001000029FAC0B2B9F1010F07D1DEB9632C19D80134E4B20025012614E0BAF1010F06D185B97CB1013CE4B2012500260AE0642806D8874206D0C4B2074600252E4601E02A
:4001400000252E46444543D0204602F07FFA632C0ED931238DF8003030238DF801308DF8023025238DF8033000238DF804301EE0092C05D91B4BA3FB0423DB08303300E0FC
:4001800020238DF80030174BA3FB0423DB0803EB83035B00E31A30338DF8013025238DF8023020238DF8033000238DF804300120002100F0EFFA684600F084FA0A238DF899
:4001C000043000F0CFFD0028FBD0684600F07CFDA046502002F06AFB80E700BF8C2A0000942A0000CDCCCCCCFEE700BF08B5104E104D16E029686B68AC68002204E051F8B4
:40020000040B43F8040B0432A242F8D1E868002203E0002143F8041B04328242F9D11035013E002EE6D102F0F5FBFFF72BFFFEE701000000AC2D000008B5124A124B1A60D4
:40024000124A136843F40073136000230AE0032B03D80F4A52F8231000E00E490E4A42F8231001332F2BF2D90C4B1A780C4B1A70094A0C4B1A6000F0E5F800220A4B1A609D
:4002800008BD00BF0004FA050CED00E014ED00E000000000E90100000080FF1FBC7600400481FF1F08ED00E00081FF1FFEE700BFF0B40022174611E050F82760F3B226F0AA
:4002C000FF0608E001EB420511F812406D78A5550132013BDBB2002BF4D101371B2FEBD9F0BC70470E4B1B78DBB203F007010D4A11701B090132137010220B4B1A700022B5
:4003000003F203731A70202203F253231A70012298331A704422A3F2E5231A70704700BFCF0100496E5800406D51004038B50122274B1A80192502331D7040F27F220233D5
:400340001A80182202331A70062203F27A231A705222A3F580731A701E4B1B78DBB21E4A137040F618021D4B1A8041F25122023B1A8000240CE01A4B1B7803F0010343EAAE
:40038000440404F003044FF4F07002F07DFA013D0DB1032CEFD115B90320FFF787FF114A4FF4807313800723137000230E490B7048200231087013700532137002220B4B06
:4003C0001A700B4A137843F00303137038BD00BF804000400F010049A14600402242004025420040044000400640004001400040A243004008B50A46002102F03CFB08BD8C
:4004000008B502F02DFB08BD092808D8044B53F82020184490F8281013780B4313707047D82A0000092809D8054B53F82020184490F82810137823EA01031370704700BF66
:40044000D82A000010B572B60122304B1A70FFF76DFF2F4A137843F00403137000240AE02C4963001A1952000A44506B118FFFF7C1FF0134E4B2072CF2D94FF09040264931
:40048000FFF716FF4FF44072244B1A8003222A3B1A8002F1804202F5A832137843F0020313701032137843F0020313701C4C237843F040032370A2F58632513A137843F017
:4004C00010031370174818490A22FFF799FF174817490822FFF794FF164817490822FFF78FFF164816490822FFF78AFF8422154B1A70154A137843F008031370FFF7F2FE87
:40050000124821460E22FFF77BFF10BD00480040E8460040D82A00007000004872580040A0430040F0510040A003004822510040AC03004852510040B403004862510040C5
:40054000BC0300485B0E014022430040B043004010B50B4C237803F09F032370237803F0F00323702378184340F010002070012002F0B2F9237803F0EF03237010BD00BFDC
:400580002051004038B505460E4C237843F020032370237803F0BF032370002002F09CF9237803F0F003237023781D4345F010052570012002F090F9237803F0EF0323704D
:4005C00038BD00BF2051004070B5354B1A7802F08002D2B21A7033490A7802F0F00242F00F020A7001310A7802F0F0020A7001310A7802F0F0020A701A7802F0DF021A702B
:400600001A7842F040021A704FF4CA76002002F063F9234D2B7843F010032B70012002F05BF9214B1C78E4B22B7803F0EF032B70002002F051F904F00804E4B22B7843F05D
:4006400010032B70012002F047F92B7803F0EF032B7014B90A2002F03FF9013E0CB1002ED4D10F4A137803F0BF031370137803F08003DBB213700232137803F0F003137011
:400680000132137803F0F00343F00F0313700132137803F0F00343F00F03137070BD00BF20510040225100402151004010B50446FFF78AFF2009FFF765FF04F00F00FFF756
:4006C00061FF10BD38B505460078012404E0FFF7EDFF285D0134E4B20028F8D138BD00BF10B50446FFF770FF2009FFF731FF04F00F00FFF72DFF10BD08B5282002F0D6F8C3
:400700000320FFF725FF052002F0D0F80320FFF71FFF0F2002F0CAF80320FFF719FF012002F0C4F80220FFF713FF052002F0BEF80620FFF7D5FF0E20FFF7D2FF2C20FFF765
:40074000CFFF0820FFF7CCFF0120FFF7C9FF0C20FFF7C6FF0320FFF7C3FF052002F0A6F808BD00BF08B50C20FFF7BAFF0122014B1A7008BD7C81FF1F08B5054B5B7823B9BB
:40078000FFF7BAFF0122024B5A70FFF7EBFF08BD7C81FF1F08B5032819D8DFE800F002070D1381F08000FFF79BFF08BDA1F14000C0B2FFF795FF08BDA1F16C00C0B2FFF798
:4007C0008FFF08BDA1F12C00C0B2FFF789FF08BDF8B502F061F80746404A137843F0010313701032137843F00103137001263C4B1E700225943B1D7002F5E2521B321378D6
:4008000003F07F031370002002F066F8354C237803F0F9032370344A137803F0DF031370237833432370304602F056F8282002F053F82E4B1A7802F07F021A701A7802F0E6
:40084000BF021A7023782B432370284602F044F8237843F0040323700023254A137001321370384602F01CF81720072102F052F81720204902F03AF81820072102F04AF84B
:4008800018201D4902F032F81520072102F042F815201A4902F02AF83046072102F03AF83046174902F022F82846072102F032F82846144902F01AF80320072102F02AF8C5
:4008C0000320114902F012F80C20072102F022F80C200E4902F00AF8F8BD00BFA54300409D6000409443004012600040F851004084600040F1120000C1100000ED12000086
:40090000351200006D120000A91200008115000010B5002304E00124244AD4542344DBB2012BF8D9224B18700023224A1370224A1370224A1370224A1370224A1370224AF9
:400940001370224A1370224B4FF400021A604FF080721A604FF400121A6002221A6004221A6008221A6011B1012906D00BE0194A137803F0FE0313700AE0164A137843F063
:400980000103137004E0134A137843F0010313700322114B1A708022203B1A70012001F073FF04220D4B1A7010BD00BF4882FF1FAD81FF1FB081FF1FCC81FF1FCF81FF1F24
:4009C000C481FF1FCE81FF1FD181FF1FAC81FF1F00E100E009600040286000401260004038B505460C46064B1B7823B9FFF7F0FE0122034B1A7028462146FFF789FF38BD17
:400A00007E81FF1F002304E001210E4AD1540B44DBB2012BF8D900230B4A13700B4A13700B4A13700B4A13700B4A13700B4A13700B4A137003220B4B1A708022203B1A7083
:400A4000704700BF4882FF1FB081FF1FCC81FF1FCF81FF1FC481FF1FCE81FF1FD181FF1FAC81FF1F28600040014B1878704700BFCF81FF1F00EB40008000024B18444078D1
:400A8000704700BFD481FF1F431EDBB2072B3BD8F0B4074600EB40039B001C4C2344DB889BB2C3F500739A4207D900EB40039B002344DA88C2F5007292B200EB40039B0032
:400AC000124C2344DB7843EA1223114D04012E192B55D3B2737039B909E0CE5C3D010D4C665501339BB200E000239342F5D3430003449B00054A134400225A705A79D2B264
:400B00000001054B1A54F0BC704700BFD481FF1FFC5F004078600040FE5F0040431EDBB2072B0BD8430003449B00054A134400225A705A79D2B20001024B1A54704700BFCE
:400B4000D481FF1FFE5F00400246002001E0013080B2135C002BFAD1704700BF10B4FF2400220EE00A4B9B5C03EB43039B0009490B449B78DBB2834201D114460222013243
:400B8000D2B2012AEED920465DF8044B704700BF9C81FF1FDC81FF1F10B5204C2079FFF7DDFF237813F0800F0ED06378DBB2212B2FD11B4B07221A80C0EBC000194A1044E3
:400BC000586000F0EBFA10BD144B5B78DBB2202B02D0222B10D01EE0114A07231380C0EBC00310490B4453600F4A135C43F00103135400F0FBFA10BD084B9B780B4A22F8C6
:400C00001030094A135C43F00203135400F086F910BD002010BD002010BD00BF00600040B881FF1F0C81FF1F9481FF1FA881FF1F10B500241F4B1C701F4B1C705C700AE097
:400C40001E4B185DC0B2431EDBB2072B01D8FFF765FF0134E4B2012CF2D9194B1B7813F0FF0F1AD0154B1B7813F0FF0F17D0154B1B7813F0FF0F14D0114B1B78DBB2082B9A
:400C800011D80E4B1B78DBB2082B0ED80D4B1B78DBB2082B0BD8002010BD012010BD012010BD012010BD012010BD012010BD012010BD00BF7F81FF1F9481FF1FA081FF1F5B
:400CC0009881FF1F9C81FF1F2DE9F8438046224B1B78224AD65CF6B2FFF736FF05460027344606EB46039B001D4A13441B899BB2AB4208D206EB46039B001344B3F8089054
:400D00001FFA89F900E0A946304608EB07014A46FFF7BAFEC9EB0505ADB245B906EB46039B000F4A13441B899BB2994510D14F44BFB204EB44039B00094A13445B7813F0F5
:400D4000FF0FF6D025B9304600210A46FFF79CFE002DC5D1BDE8F8837F81FF1F9881FF1FD481FF1F08B5034B1B78034AD05CFFF781FE08BD7F81FF1F9881FF1FC37803F0CB
:400D8000030390F9020000280FDA032B06D002F001030B48C15442F001020EE0C2F380030848C15442F0040207E0032B05D0C2F340030548C15442F002021046704700BFF1
:400DC0009881FF1F9C81FF1FA081FF1F1C4B19781C4A13880B449BB2138000230EE01A4A51680978C9B21948C1545168013151600133DBB21188013989B21180124A128888
:400E000092B20AB1072BEAD90D4A1278D2B2082A00D05BB10E490A7882F080020A700F210C4A117002210C4A117004E0022209490A7009490A70094A1370014A1370704708
:400E4000AC81FF1FAE81FF1FB881FF1F006000404282FF1FCD81FF1FB081FF1FD081FF1F0222074B1A708022064B1A700F22064B1A700023054A1370054A137001207047AF
:400E8000B081FF1F4282FF1FCD81FF1FAC81FF1FD081FF1F08B5FFF799FF08BD10B4184B197801F00F010239C9B2164A13880B449BB21380002010E0134B5C68134A125C35
:400EC000D2B222705A6801325A600130C0B20139C9B21A88013A92B21A800B4B1B889BB20BB10029E8D10A4B19700A4A137883F0800313700B22084B1A705DF8044B70479B
:400F000029600040AE81FF1FB881FF1F00600040D081FF1F4282FF1FCD81FF1F0623064A1370064A13708022054B1A700022054B1A700120704700BFB081FF1FCD81FF1F4E
:400F40004282FF1FD081FF1F064B9B6843B1054B9A6810709A6804490988518000229A60704700BFB881FF1FAE81FF1F08B5134B1A78D2B21A701B78DBB213F0800F02D0E0
:400F80000F4A137008BD0220FFF7DEFF0D4B1B7803F06003202B05D0402B06D043B900F0D9FD06E001F006FD03E000F081FF00E0002010B90322024B1A7008BD28600040B8
:400FC000CD81FF1F0060004008B5084B1978084A13880B449BB213800022064B1A700120FFF7B2FF0322044B1A7008BDAC81FF1FAE81FF1FB081FF1FCD81FF1F08B50B4B3A
:401000001B78DBB2042B06D0062B07D0022B0BD1FFF7DAFF08BDFFF741FF08BD0320FFF793FF0322024B1A7008BD00BFB081FF1FCD81FF1F08B50022044B1A700120FFF736
:4010400083FF0322024B1A7008BD00BFB081FF1FCD81FF1F08B50B4B1B7813F0FF0F07D0084A137843F0800307490B70002313700022064B1A700120FFF766FF0322044B34
:401080001A7008BDCE81FF1F08600040B081FF1FCD81FF1F08B5094B1B78DBB2042B06D0062B07D0022B07D1FFF7F4FE08BDFFF7C1FF08BDFFF7CEFF08BD00BFB081FF1F10
:4010C00008B5284B1B78DBB213F0100F48D013F0800F0CD003F00F03012B16D1FFF746FF214B1B7813F0800F11D1012312E013F0400F03D0FFF7CEFF01230BE013F0200FF3
:4011000007D0FFF77BFF012304E0002302E0002300E0002323B3134B1B7813F0800F1FD1124B1B78124A12781343124A13701278D2B29A4214D10C4B1B78DBB2094A1278BE
:4011400012F0800F07D1084B1B78DBB2054A1370137803F00F03044A1278D2B29342EAD108BD00BF28600040CD81FF1F4282FF1FD081FF1F296000400022064B1A80064B15
:401180009B682BB1044A916800230B7092685380704700BFAE81FF1FB881FF1F08B50F4B1B889BB213B9FFF75BFE15E002220C4B1A7000220B4B1A70FFF7DEFF0A4AD179F5
:4011C000937943EA0123054A128892B29A4201D9024A1380FFF7FAFD012008BDB881FF1FB081FF1F4282FF1F0060004008B504220B4B1A7080220B4B1A70FFF7BDFF0A4A8A
:40120000D179937943EA0123084A128892B29A4201D9064A13800B22054B1A70012008BDB081FF1F4282FF1F00600040B881FF1FCD81FF1F0A4A137803F0FE031370094B13
:401240009B7C094B1B7B03F00303012B04D0064AD37B83F08003D3730122034B5A7370470B600040FC5F0040D481FF1F0B4A137803F0FD0313700A4B93F82230094B1B7E77
:4012800003F00303012B04D0064AD37E83F08003D3760122034B5A76704700BF0B600040FC5F0040D481FF1F0D4A137803F0FB0313700C4B93F832300B4B93F8243003F023
:4012C0000303012B06D0084A92F8273083F0800382F827300122044B83F82520704700BF0B600040FC5F0040D481FF1F704700BF08B5FFF787FB08BD08B50B4B187801383F
:40130000C0B200F0C9F9094B1B79DBB200EBC30042690749CB5C02EBC3035B68596A0B78044A1380516008BDCF81FF1F006000404082FF1FB881FF1F08B50D4B187801380E
:40134000C0B200F0A9F90B4B1B79DBB200EBC30042690949CB5C02EBC3035B68DB69597813F8022B42EA012204490A804B6008BDCF81FF1F006000404082FF1FB881FF1F82
:4013800010B50022194B1A80194B18780138C0B200F082F91749CB78DAB20B79DBB200EBC3004169012B20D81348C35C01EBC3014968531EDBB2022B17D802F10053013B0B
:4013C00001EBC3000B4A9278D2B211F8333093420BD3406802EB4202920081184C68034B5C60825A1A808A689A6010BDB881FF1FCF81FF1F006000404082FF1F08B55B4BA3
:401400001A79D2B21B7813F0800F4DD0574B5B78013B052B00F28D80DFE803F0212B3B8B8B03524BDB78DBB2212B09D1FFF764FF4F4B1B889BB2002B7DD0FFF7AFFE08BDB3
:401440004A4BDB78DBB2222B77D1FFF775FF484B1B889BB2002B72D0FFF7A0FE08BDFFF78FFF434B1B889BB2002B6AD0FFF796FE08BD012A67D83D4B9B7813F0FF0F64D1AE
:401480003B4901230B803B4B1A444A60FFF786FE08BD012A5BD8364901230B80364B1A444A60FFF77BFE08BD304B5B78DBB20A2B0DD00B2B2ED0092B4BD1FFF761FF2C4BA5
:4014C0001B889BB2002B46D0FFF790FE08BD012A43D8264B9B7813F0FF0F40D1234BDB78DBB224498B548B5C2449895CDBB28B4203D20021214B995409E0204B9B5CDBB232
:40150000012B04D91B4B9B5CDBB21C498B54FFF705FD08BD012A24D8144B9B78DBB2012B21D8124B9B78DBB213498B54FFF7F6FC08BD002008BD002008BD002008BD0020B8
:4015400008BD002008BD002008BD002008BD002008BD002008BD002008BD002008BD002008BD002008BD002008BD00BF00600040B881FF1F5082FF1F4882FF1F4C82FF1F3A
:4015800008B501F091F808BD70B588B0054603AC174E0FCE0FC43368237035B322232B7003236B7001A801F0CDF9002402231AE008AA224412F81C2C08A901EB121111F8F6
:4015C000141CE954581C00212954981C02F00F0208AE324412F8142C2A54DA1CA9540134E4B20433DBB2212BE2D908B070BD00BF3C2B000010B401223DE0114613010C248E
:401600002148C45402EB42039B00204803445B7913F0FF0F12D002EB42039B0003441B7913F0800F04D01001194B03449C700AE01001174B03440820987004E01001144BE8
:401640000344802098704B000B449B000F480344DC88E4B208010C4901448C71D888C0F30720C871D888C0B20871DB88C3F307234B710132D2B2082ABFD9FF22054B1A70D5
:401680005DF8044B704700BF70600040D481FF1FFC5F00400A600040074B1B78074A02EBC30253681A7C824203D903EBC003586970470020704700BFAD81FF1FF02B000049
:4016C000F8B5404B1B7813F0FF0F79D03D4B18780138C0B2FFF7E0FF047AC2683A4B1878C0B200236AE01178814264D13749095CC9B25578A9425ED1917801F07F01D67801
:4017000006F00306DFF8C8E04D000D44AD000EEB05074FF0000C87F803C092F802C087F804C092F803C00EF805C095883D8192F90250002D0DDA012E01D1072700E00D2798
:401740004D000D44AD00224E35446F7101266E700CE0012E01D1052700E009274D000D44AD001B4E35446F7100266E70DFF868E00F010EEB07060125B57001FA05F5294434
:401780008900134D29440D89C5F307250EF807500D89EDB27570CE88F6B20E4D3D44AE71CE88C6F30726EE71CE88F6B22E71C988C1F30721697108320133DBB2A34292D365
:4017C000F8BD00BFCF81FF1FC481FF1F4082FF1FD481FF1F70600040FC5F0040034B1A78034B03EBC2035868704700BFAD81FF1FF02B000008B5074B18780138C0B2FFF7E8
:401800004BFF28B14268127900EBC203586908BD002008BDCF81FF1F2DE9F84300220EE06F4E53009D18AD00741900217155A170E1702181A172617061710132D2B2082ADD
:40184000EED940B90AE000226649CA546649CA540133DBB200E00023012BF4D9634B1B7813F0FF0F00F0B980604B18780138C0B2FFF712FF80464368DB7913F0400F05D0F1
:401880005B4A137843F00103137004E0584A137803F0FE03137098F808704FF0000901266CE0D8F80C50002464E0AB7803F07F039E425CD1314606EB46039B004848034497
:4018C0001B899BB2A888834205D206EB46039B00434A134418812B784248C35CDBB26878834244D195F802C03D484B000B449B0000EB030E8EF804C095F803E000F803E0AC
:40190000EB7803F0030395F90200002811DA012B02D14FF0070C01E04FF00D0CDFF8C0E04B0058188000704480F805C00123437012E0012B02D14FF0050C01E04FF0090C2E
:4019400027484FEA410E0EEB01039B00034483F805C0194600234B70AB790A2B01D0022B05D1284631464A46FFF708FA814608350134E4B2BC4298D30136F6B2082E90D9C4
:40198000D8F80C0000220CE0837803F07F0310F8084B03EB43039B0016490B449C700132D2B2BA42F0D3FFF725FF134B1860002301210EE00A4C4A00501880002044C38021
:4019C000028913449BB203F0010213449BB20131C9B20829EED9FFF70DFEBDE8F88300BFD481FF1F4082FF1FB481FF1FCF81FF1FD181FF1FDC81FF1FC881FF1F08B5154B16
:401A00001A7902F07F02531EDBB2072B20D8530013449B0010490B44997841F0010199700021D970597841F0020159701B7913F0800F05D01201094B13448D229A7004E0B0
:401A40001201064B134489229A70FFF767FA08BD002008BD00600040D481FF1FFC5F0040264B1B7903F07F035A1ED2B2072A43D810B55A001A44920021490A44917801F0C4
:401A8000FE0191700021D17019017F241D484454517801F0FD015170127912F0800F14D003EB4302920016490A445278D2B2012A05D11B0102461A440C23937019E01B01C7
:401AC000104A1A440D23937013E003EB430292000B490A445278D2B2012A05D11B01094A1A440823937004E01B01064A1A4409239370FFF713FA10BD002070470060004033
:401B0000D481FF1FFC5F004010B50E4B1C79E4B20D4B18780138C0B2FFF7BEFD43681B799C4201D9022C0AD8084A135DDBB208490B55044B9B78DBB21355012010BD00209E
:401B400010BD00BF00600040CF81FF1F4082FF1FB481FF1F10B5964B1B78DBB20021954A118013F0800F00F0B380914A5278D2B20A2A00F27981DFE812F06F00770177011B
:401B80007701770177010B00770198007701A000874BDB78DBB2012B09D1FFF71FFE4268844B5A6012221A80FFF7F8FA10BD804BDB78DBB2022B13D17D4B9878FFF76CFD16
:401BC000002800F0538142687A4B5A605A68D1785A68927842EA01221A80FFF7DFFA10BD734BDB78DBB2032B05D032E00A7811440133DBB201E000236F496D4A9278D2B228
:401C00009A4203D90A7812F0FF0FEFD1684B9B78DBB2EE2B00D16949654B9B7813F0FF0F0BD0634B9B78DBB2654A127C934204D1644C2046FFF7A8FC21460B7813F0FF0F1C
:401C400000F016810B785B4A13805160FFF7A6FA10BD00F0AFFE10BD13F0030317D0022B40F0088153490B80514B1B7903F07F0303EB43039B00544A13449A78D2B2534B0A
:401C80001A7000225A704B60FFF788FA10BD494902230B804E4B1A78D2B24C4B1A7000225A704B60FFF77AFA10BD424B01221A80484A5A60FFF772FA10BD3E4A01231380DA
:401CC0003B4B1B7944490B445360FFF767FA10BD374A5278013A0A2A00F2CE80DFE812F04B00CC009700CC000B00CC00CC00CC001300CC0030002E4B9B78DBB2374A13703F
:401D0000FFF70CF910BD2A4B9B7803F0FF041BB1601EC0B2FFF7C0FC04B110B9002C40F0AD802C4B1B78DBB29C4206D0294B1C7001202B4B1870FFF76FFDFFF7EFF810BD72
:401D4000FFF7E2FE002800F09B80194A1379DBB21279D2B223490A70234AD25C1E49C95CD3B28B4204D001221D4B1A70FFF7A8FCFFF7D4F810BD03F00303012B36D04BB137
:401D8000022B7FD10A4B9B7813F0FF0F7CD1FFF767FE10BD064B9B78DBB2012B76D10C4A137803F0FD031370FFF7B8F810BD00BF00600040B881FF1F902C0000DC2B000011
:401DC000742D0000A082FF1FD481FF1F8081FF1FD181FF1FCF81FF1F4082FF1FCE81FF1FCC81FF1FC481FF1FB481FF1F2D4B1B79DBB2012B4CD82B4B98781B79DBB22A4921
:401E0000CA5C22EA0002CA54FFF788F810BD03F00303012B17D04BB1022B3BD1214B9B7813F0FF0F38D1FFF7E9FD10BD1D4B9B78DBB2012B32D11D4A137843F002031370A6
:401E4000FFF76CF810BD174B1B79DBB2012B27D8144B98781B79DBB21349CA5C22EA0002CA54FFF75BF810BD002010BD002010BD002010BD002010BD002010BD002010BDAB
:401E8000002010BD002010BD002010BD002010BD002010BD002010BD002010BD002010BD002010BD006000404482FF1FD181FF1F08B50B4B1B7813F0800F0CD0084B5B789F
:401EC000DBB2012B09D1074B074A5A6012781A80FFF764F908BD002008BD002008BD00BF00600040B881FF1FB42B000010B500F0D3FC0446134A137843F02003137000F0D8
:401F0000B5FC00F0D9FB00F02FFC0F4A137843F010031370103A137843F01003137002F5A6520532137843F001031370204600F0B7FC0122054B1A60054A137843F08003D5
:401F4000137010BD9E640040BB43004000E100E07D6400400130C0B2072808D0C20800F0070101238B4002498A5C1342F2D070472881FF1F024B187800F00100704700BF4A
:401F80006382FF1F10B50B4B195C1A18147A03EB80031B6909221A700F2900D10721054A02EB8102D26A137823431370FEF72CFA10BD00BF502B000070B505460B4B1C5C24
:401FC00003441E7AFEF72EFA0F2C00D10724074800EB8404E26A137823EA0603137000EB8500036908221A7070BD00BF502B000010B5002404E02046FFF7DEFF0134E4B2B4
:40200000062CF8D910BD00BF10B50E4A137803F0FC0313700C4B1B781B020C4921F810306F3A12781343DB4321F81030FFF7C4FF002000F0B5FB064A137843F00103137031
:4020400010BD00BF7D6400401E6400405482FF1F70580040024B187040081033187070472A64004038B5084B034493F84C50074C2044007900F094FB25442A7B044B1A7044
:40208000E07BFFF7E7FF38BD502B00002881FF1F5D64004038B50546FFF7E4FF084C237843F001032370074A137803F0FE0313702846FFF767FF237843F00203237038BD6F
:4020C0007D6400407058004008B5054B00221A70044A107081221A70FFF7DCFF08BD00BF6382FF1F6282FF1F10B500220A4B1A700A4CFF2323702078FFF72CFF20702378F4
:40210000DBB2062B07D8044A137843F0010313702078FFF7BFFF10BD6382FF1F6282FF1F012805D1054A137803F0EF0313707047024A137843F01003137070477D640040E1
:4021400038B5FFF755FF0220FFF7EAFF00F0A4FB284A137843F00303137000F0A1FBB822254B1A70FF2420331C70012542331D7000F092FB214A137843F0030313700132F3
:40218000137843F00303137000F08AFB1C4B1C7020331C70403B1C7021331C7030331C70103B1C70174B1D600020174900F09EFB0020072100F0AEFB00F054FB0720FEF7C0
:4021C00023F90820FEF720F90920FEF71DF90F4A137843F00403137000F0A8FA00F000FB002000F013FB042000F020FB002000F0D7FA38BD9C6400402C6400409D640040C7
:402200002D64004080E100E0D52500007D64004008B5054B1B7823B9FFF792FF0122024B1A70FFF763FE08BD8481FF1F10B40C4B1B5C0C4A32F810200B4921F81020002135
:402240000A4C21540A4C215423B1591E094CE45C094B5C54094B23F810205DF8044B70479C2B00005482FF1F7C82FF1F6C82FF1F7482FF1F3881FF1F8881FF1F8C82FF1FC9
:4022800010B50446FFF720FFFFF774FE0028FBD12046FFF7CBFF10BD10B5002404E02046FFF7EEFF0134E4B2062CF8D910BD00BFF0B5C40800F0070201239340DBB21E4AE5
:4022C000125C1E4DAE183779317AAE5C22B901251B4A9570022201E0013AD2B2194D2D5D1D420DD0DFF860E01EF80000791A88421BDA25EA030513490D5511498E5414E0FB
:40230000DFF844E01EF80000394488420BDD11460B48825C012A02D81D430A480555013A0748425401E006498E54064A105D184000D00120F0BD00BF9C2B00003881FF1F82
:402340008881FF1F9C82FF1F7482FF1F70B5094B1C5C184405792544EDB200262046FFF7A7FF00B101260134E4B2AC42F6D3304670BD00BFA42B000070B4094D0544002677
:40238000FF20334608E0EC5C944203D9A64201D2264618460133DBB28B42F4D370BC70477482FF1FF0B59DF81450284C2144044610B1461EF6B200E00026601CC0B211F847
:4023C00004E0234F87F805E024B900263E71095CB9710DE0013A944205D1895D1C4A11710021917104E08E5D194A1671095C9171174A1279AA4203D9521B15490A7102E021
:402400000021134A1171124A5179491BC9B251719279AA4203D9551B0D4A957102E000200B4A90710A4A90791579421B29440844120292FBF0F000EB04201BB200FB03F091
:4024400000F5FE40C0F30740F0BD00BF7482FF1F8881FF1F0844C0F34F007047F8B50446294B1B5C294A13441E7B294D294B33F8100035F81410FFF7EDFF25F81400264B44
:4024800033F81420824203D8851AADB2012702E0151AADB2002787B9142D0ED91F4B1B5D042B06D92046FFF7C1FE00221B4B1A5518E00133194A135514E0B3B2AB4202D2E6
:4024C000132D0FD877B916490B5D43EA02231844801AC0F30F22104B23F81420085500220E4B1A55B6B2AE4209D247B1FF2D03D9FF220C4B1A55F8BD0A4B1D55F8BD002234
:40250000084B1A55F8BD00BF9C2B00003881FF1F8C82FF1F5482FF1F7C82FF1F6482FF1F6C82FF1F7482FF1F10B500240DE0E20804F0070101238B4005498A5C134202D061
:402540002046FFF78BFF0134E4B2062CEFD910BD2881FF1F2DE9F04182B004461B4B03441D7C1B4A175C02441679384631461A79FFF702FFFF2820D0DFF850804444237B03
:402580000093394632464FF4C853FFF70BFF024680B26B1CDBB2A84498F8101031B90B490B441A74012388F810300CE0074C1C44217CFFF74FFF207405E0044B1D4400233E
:4025C0002B744FF6FF7002B0BDE8F0813881FF1FA42B000010B5114B1878FFF715FD104B1B7813F0800F05D00D4A137803F0FE03137010BD094C2078FFF7ACFC2070237830
:40260000DBB2062B03D82078FFF744FD10BD044A137803F0FE03137010BD00BF6282FF1F6382FF1F024A137843F08003137070477B640040014B1870704700BF0B640040A5
:40264000014B1870704700BF4B640040014B1870704700BF2B64004008B50B4A137803F0C00343F0090313702032137843F0010313706320FFF7DEFF6320FFF7E1FF00208D
:40268000FFF7E4FF08BD00BF7B64004008B5054B1B7823B9FFF7E0FF0122024B1A70FFF7C1FF08BD9081FF1F024B1878C0F38010704700BF8F450040054A137843F00103EE
:4026C00013701032137843F001031370704700BFA74300400F490B7803F0FC0200F0030313430B7001280AD10B4B1B78DBB20B4A13700B4B1B78DBB2013213707047094B14
:402700001B78DBB2054A1370074B1B78DBB201321370704740580040100100493046004014010049AD010049B501004908B50020FFF7D0FF0B4B1A7842F020021A701A7892
:4027400002F0FB021A701A7842F008021A7003F287231A7802F0E7021A701A7842F010021A7008BD40580040054A137843F0010313701032137843F001031370704700BF64
:40278000A8430040054B1A7802F0FD021A701A7800F0020010431870704700BF20580040014B1870704700BF805B0040094B1B7803F00C035B08084A127812F0040F00D092
:4027C000013303F1924393F82031DBB2034A1370704700BF20580040215800400846004008B51422084B1A700133002018701A7842F004021A701A7842F002021A70FFF7E6
:40280000C1FFFFF7D3FF08BD2058004008B5064B1A7802F0FB021A701A7800F0040010431870FFF7C3FF08BD2158004008B5064B1A7802F0F3021A701A7800F00C001043F1
:402840001870FFF7B3FF08BD2058004010B5002404E02046FDF7E6FD0134E4B2092CF8D910BD00BF08B5FFF7F1FF08BD054A137843F0010313701032137843F001031370C1
:40288000704700BFA24300400230800803D000BF01380046FCD17047EFF3108072B6704780F31088704700BF01BE704710B5044605E0084B1868FFF7E7FFA4F50044B4F5BD
:4028C000004FF6D8034B586800FB04F0FFF7DCFF10BD00BF4C81FF1F08B5034B1B7A03FB00F0FFF7D1FF08BD4C81FF1F70B504460E46074B1D681F2802D90020FFF7D4FFCD
:4029000004F01F04103455F8240045F8246070BD08ED00E038B504460D46072902D90020FFF7C2FF1F2C02D90020FFF7BDFF04F01F0000F1604000F564406D01EDB20570E5
:4029400038BD00BF134B1B78DBB20360124A127843EA02230360114A127843EA024303600F4A127843EA026303600E4B1B78DBB243600D4A127843EA022343600B4A1278C4
:4029800043EA024343600A4A127843EA02634360704700BF0301004904010049EC460040020100490101004900010049050100490601004908B5144B1B7803F00303012B18
:4029C00002D0022B04D00FE00F4B1B79DBB20CE00D4B1B7903F07F0303EB43039B000B4A13449B78DBB200E00023094A1268D35C022B04D0032B05D1FEF700FD08BDFEF782
:402A0000CBF808BD002008BD00600040DC81FF1FC881FF1F0E4B70B51E460E4C0025E41AA410A54204D056F8253098470135F8E700F0AAF9084B094C1E46E41AA4100025CC
:402A4000A54204D056F8253098470135F8E770BD942D0000942D0000942D00009C2D000010B5431E0A44914204D011F8014B03F8014FF8E710BD03460244934202D003F833
:402A8000011BFAE7704700000000000020203025000000004C4544204272696768746E6573733A200000000031000000312E3500320000004E6F6E65000000004F646400C7
:402AC0004576656E000000004D61726B0000000053706163650000005C5100405C5100405C5100405C5100405C5100405C5100405C5100406C510040C35A0040835A0040DF
:402B0000204001020408101001100000005100402000305100402000C0510040100000000140001000140140000800400140000A004C0140000200500140200030313233C3
:402B400034353637383941424344454600000000050505050505050020400102040810002D5000402E50004028500040295000402A5000402B5000402C5000400652004022
:402B80000E520040165200401E520040265200402E520040365200407E52004001020000000000000200010005010100040000000019000028000000000104000100000075
:402BC0000000000000014359555342000000303030303100000000000000000012034D005300460054003100300030000100000001000000F82B000001000000742D0000B6
:402C0000000000000000000001000000102C000001000000302D0000030000003C2C00000000000000000000000000000000000000000000382C0000020A0000000081039A
:402C4000080002000100820240000A000100030240000A00320005010902A1010901A100050919012903150025019503750181029501750581010501093009311581257F36
:402C8000750895028106C0C00000000002030000040309042C0343007900700072006500730073002000530065006D00690063006F006E0064007500630074006F00720049
:402CC000100355005300420055004100520054003803430044004300200043006F006D006D0075006E00690063006100740069006F006E00200049006E00740065007200FE
:402D00006600610063006500260343004400430020004400610074006100200049006E007400650072006600610063006500000009024300020101C0320904000001020270
:402D40000103052400100104240202052406000105240100010705810308000A09040100020A0000040705820240000007050302400000001201000202000008B40432F2B2
:402D80000100010280010000F8B500BFF8BC08BC9E4670474D00000039020000F8B500BFF8BC08BC9E46704729000000C02D00000881FF1F5800000068010000000000008A
:402DC0000000000000C2010000000800C201000000080000A120000000000200000000007F000000C8C8C8C8C8C8C8000F00000201030300282828000005050014141400AD
:402E0000010000000000007D00FA0000400000000090D003000000000000000000000000000000000000000000000000000000000000000000000000000000000000000077
:402E40000000000000000000000000000000000000000000000000000000000000000000000000000000000000000000000000000000000000000000000000000000000052
:402E80000000000000000000000000000000000000000000000000000000000000000000000000000000000000000000000000000000000000000000000000000000000012
:402EC00000000000000000000000000000000000000000000000000000000000000000000000000000000000000000000000000000000000000000000000000000000000D2
:402F00000000000000000000000000000000000000000000000000000000000000000000000000000000000000000000000000000000000000000000000000000000000091
:020000040003F7
:0200000480007A
:4000000001450040035200400864004002010140010301400107014002090140420A0140290B0140490C0140380D01403B0E0140270F01400117014001190140094001407E
:40004000044101400142014004430140074401400645014003460140084701400348014003490140014C014003500140015101407E022E7F30017C400AFF0DFF0EFF1DFF96
:400080001EFF2DFF2EFF8E1FE204E608E608EE04AB20B510404646504724483849FF4AFF4BFF4C024D204F05511056085A045B0F5F01604061406280648066808202870108
:4000C00088108C089302960D9C019E029F01A810B004B102B210B403B501B608B808BE10C010C106C501C620C809C9FFCAFFCBFFCDA0CF04D018D280D804D904DA04DB04C6
:40010000DC10DD11DF01E040E2C0E440E540E6C0E8C0EAC0ECC0EEC0046006400E200F0116041C401D801E201F2025102780350137803F04410147804B104F24501051019B
:40014000520457105880600275017801931198819A409C02A580C0D0C2A0C440CC90CE40D011D224D608D808DE0140014106460A49FF4AFF4BFF4C024EF05A045F016248C4
:4001800063A168F06AF06CF06EF080268209840786208760882589558A028C278D1F8E108F809220952A9606970198089A019C279F7FA606AA09AD78B004B106B203B3014A
:4001C000B418B5E0B620B718BE10BF55C032C104C502C660C766C839D217D804D904DA04DB04DF01E10CE2F0E30CE50CE70CE840E94CEA40EB4CEC90ED58EF0C03AA080144
:4002000009020A110B041028188019491A041B8A204621042802314438883A104040410442044580481049044B044F10500852115640682069406B087301900892119310F6
:400240009404954098809C029D4D9E119F08A102A320A411AC02B080C00FC20FC406CA08CC0ACE0ED017D220E608EC02000701040208040F08020B030E400F04100114B008
:4002800015041640180E19041A011C5F1EA01F0320092103220624202501268028E029022A102C042D0332C03304340F363037033F404012410546204706481856025804DA
:4002C00059045A045B045E085F01610C62F0630C650C670C6840694C6A406B4C6C906D586F0C00200148038009020A1510401201131818021A351B202001210C231028021F
:4003000029052A102B8030403148321038223940400548015014710279088508C00FC20FC40FCA0FCC0ECE0DD00CD208DE02E204EE02EE0230023140350236408002854045
:40034000CCF0E220E61085029D02A640E610A640A320A640AB20EE2028023B2054208240CA08CE08D40284209640A420AF10B002EA0496409C20A42008200B400E4096409C
:400380009C20B420C20EEC08A320AE40EE407B20A320DE40AF4000030C030E0100AB00004000000000000000C0000000007F7F000000000000007F00000000000001010054
:4003C00001001000000000000000000000000000000000000000000000000000000000000000000000000000000000000000000000000000000000000000000000000000EC
:4004000000000000000000000000000000000000000000000000000000000000000000000000000000000000000000000000000000000000000000000000000000000000BC
:40044000000000000000000000000000000000000000000000000000000000000000000000000000000000000000000000000000000000000000000000000000000000007C
:40048000000000000000000000000000000000000000000000000000000000000000000000000000000000000000000000000000000000000000000000000000000000003C
:4004C00000000000000000000000000000000000000000000000000000000000000000000000000000000000000000000000000000000000000000000000000000000000FC
:0200000490006A
:0400000000004005B7
:0200000490105A
:04000000BC90ACAF55
:0200000490303A
:02000000C850E6
:0200000490402A
:4000000000000000000000000000000000000000000000000000000000000000000000000000000000000000000000000000000000000000000000000000000000000000C0
:400040000000000000000000000000000000000000000000000000000000000000000000000000000000000000000000000000000000000000000000000000000000000080
:400080000000000000000000000000000000000000000000000000000000000000000000000000000000000000000000000000000000000000000000000000000000000040
:4000C0000000000000000000000000000000000000000000000000000000000000000000000000000000000000000000000000000000000000000000000000000000000000
:0200000490501A
:0C00000000012E12306900012E23F8B917
:00000001FF