:400000000080002011000000D9080000D908000008B5044B1A6803F53F5302331A6000F05DFC00BFFA46004010B5054C237833B9044B13B10448AFF300800123237010BD5C
:400040008081FF1F00000000004B0000084B10B51BB108480849AFF300800848036803B910BD074B002BFBD0BDE81040184700BF00000000004B00008481FF1F0881FF1FBB
:400080000000000070B506460D4600E0B8B103F053FC0D28FAD103F04FFC0A28FBD1002407E00D2805D00A2803D010B1631C3055DCB203F041FCA842F3D1204670BD0020B7
:4000C00070BD00BFF8B504460E460846154904F0ABFB04F0BBFC85B205EB8500400004F09BFA0146304604F0E1F9074604F0AEFC86B2304604F090FA0146384604F0D6F939
:40010000084904F0DDFA04F0A1FC30352570303666702E23A3703030E0702023237143236371F8BD0000204138B50378303B4278303AC478303C03EB83004000104404F009
:400140006BFA0546204604F067FA044904F06CFB0146284604F0ACF938BD00BF000020412DE9F04FADF5037D50A80021C82204F0BEFC00249E4B1C6131AD9E4E0FCE0FC5DC
:4001800096E8030045F8040B29802CAD9A4E0FCE0FC5336825F8023B1B0C2B7027AD974E0FCE0FC5336825F8023B1B0C2B7062B603F0D0F800F080FF01F072FC01F06EF986
:4001C00003F0ACFB03F03AFC8D4B93E803002490ADF89410090C8DF896108DF897408DF898408DF899400C3393E803002190ADF88810090C8DF88A108DF88B408DF88C4012
:400200008DF88D402046214601F058FC7D4801F0EDFB0120214601F051FC7B4801F0E6FB01F080F92046214601F06EFD01F0B0FD0028FBD001F0CCFE00F052FF4FF00008FA
:4002400047464FF0000A714B0093714B01931E46FF230593C146CDF8108003F0FDFB002800F08880A0F14303302B00F28380DFE803F0586F818181815C818181818181195D
:40028000818154818181818181818181818181818181586F818181815C81818181818119818154005B4B1B68012B0CD1012001F0ABFB0024574B1C60574803F0EFFB2046AF
:4002C00003F018F856E00124524B1C600020014601F0F4FB4B4801F089FB2046002101F0EDFB494801F082FB00200A2101F0E6FB24A801F07BFB20460A2101F0DFFB21A864
:4003000001F074FB454803F0C9FB33E003F0A4FB08B103F0B7FB013400E00024032CF5DD28E024A803F0BAFB24E0304603F05CFD2DA3D3E9002303F0F9FB04F063F8064669
:4003400021A83146FFF7BEFE21A803F0A7FB11E0304603F049FD24A3D3E9002303F0E4FB04F050F8064621A83146FFF7ABFE21A803F094FB03F0F6FA03F024FB01F03EFA45
:4003800000F0F8FF234B1B68012B40F0AE8000F035FF002800F0A980012001F01DF98246022001F019F90546002001F099F9C4B2012D37D1049B002B67D13046184904F0FA
:4003C0001DFB002861D0304603F00EFD06A3D3E9002303F0ABFB04F015F806464FF000090123049351E000BF9A9999999999B93FD481FF1FCC4B0000E44B0000F84B00002C
:40040000044B00001C4B0000284B00000000C8410000E0410C81FF1F304B0000384B00000000C842BAF1010F12D1B9F1000F2CD1304603F0D9FC82A3D3E9002303F074FBBE
:4004400003F0E0FF06464FF00109002304931CE0632C16D8059BA34217D0204603F0B2FC00227B4B03F03EFE00227A4B03F010FD03F0C8FF064605944FF00009CDF8109025
:4004800003E04FF00009CDF81090002000F030FE00F046FE03F096FC6BA3D3E9002303F0F7FC00226C4B03F041FB03F0ABFF8346002000240EE0651C82AB03EB850353F8D3
:4004C000C8AC514603F0F4FF82AB03EB840444F8C8AC2C46302CEEDDCDF804B2594603F0E7FF5E4904F0A0F9824601F00BFE002869D037A801F01EFE002864D09DF8DF30E9
:400500005F3B162B5FD8DFE803F0145E5E5E5E5E325E5E5E5E5E5E5E5E5E5E5E5E2A5E5E0C0001F0FBFD0028FBD04D4801F09CFD49E001F0F3FD0028FBD037A801F0FAFDBA
:40054000002305E01A1D37A9895C07AAD1540133032BF7DD07A8FFF7E7FD064633E001F0DDFD0028FBD024A801F07EFD2BE03D4B1B68FBB901243B4B1C600020014601F044
:400580009DFA394801F032FA2046002101F096FA364801F02BFA00200A2101F08FFA24A801F024FA20460A2101F088FA21A801F01DFA08E000242B4B1C60012001F024FAC7
:4005C000204602F097FE24A85146FFF77BFD21A83146FFF777FD234B1B68012B51D15046314603F063FF224904F026FA40B93046514603F05BFF1E4904F01EFA00283DD078
:400600001C48026801321C4B83FB0231D317C3EB610303EB8303D31A03605BB943681BB94FF48062426005E0B3F5806F02D10022104B5A600F4B988802F05CFE21E000BF7B
:400640009A9999999999B93FD95F764F1E16BA3F000059400080414000000C40000048423C4B00000C81FF1F1C4B0000284B00000000A0409C81FF1F67666666002002F07F
:4006800039FE5046314603F011FF0446844904F0D3F900285ED0834A936801339360B8F1000F3ED103F05EF97F4803F079F94FF4FA7003F083F803F055F97C4803F070F91E
:4006C0004FF4FA7003F07AF8794803F069F903F049F908A83E21FFF7D5FC4FF4FA7003F06DF803F03FF931A803F05AF924A803F057F92CA803F054F921A803F051F927A880
:4007000003F04EF94FF4FA7003F058F803F02AF91A2003F039F94FF4FA7003F04FF84FF00108604B9B68322B14D103F01BF903F049F9604803F034F94FF4FA7003F03EF821
:400740005D4803F02DF94FF4FA7003F037F85B4803F026F95A4B1B68012B40F08680204603F042FBCDE9020143A3D3E9002303F01FFE00283FD1DDE9020141A3D3E90023C5
:4007800003F016FEB8B1DDE902013DA3D3E9002303F0CAF93CA3D3E9002303F0A3FC0022484B03F075FB0022474B03F0BFF903F009FE87B223E0DDE9020135A3D3E900230E
:4007C00003F0F6FD88B1DDE902231046194603F0ADF900223D4B03F05BFB00223C4B03F0A5F903F0EFFD87B209E02046002104F00FF920B102E04FF4806700E00027B7F560
:40080000806F01DD4FF48067384602F079FD0198314604F0E9F8B8B15046009903F046FE03F0E2FA1CA3D3E9002303F0C1FD58B90098514603F03AFE03F0D6FA16A3D3E966
:40084000002303F0B5FD68B100200A2101F036F924A801F0CBF801200A2101F02FF921A801F0C4F8CDF800A00196502002F0A6FFF3E400BFAFF30080333333333333D33FD2
:400880009A9999999999C93F9A9999999999B93F9A9999999999A93F7B14AE47E17A743F0000A0409C81FF1F704B0000804B00008C4B0000A44B0000AC4B0000B84B000098
:4008C0000C81FF1F00005E4000208C400000594000008940AFF30080FEE700BF08B5104E104D16E029686B68AC68002204E051F8040B43F8040B0432A242F8D1E8680022B8
:4009000003E0002143F8041B04328242F9D11035013E002EE6D104F0B9F8FFF721FCFEE7010000002C4F000008B5124A124B1A60124A136843F40073136000230AE0032BF4
:4009400003D80F4A52F8231000E00E490E4A42F8231001332F2BF2D90C4B1A780C4B1A70094A0C4B1A6000F033F900220A4B1A6008BD00BF0004FA050CED00E014ED00E035
:4009800000000000D90800000080FF1FBC7600400481FF1F08ED00E00081FF1FFEE700BFF0B40022174611E050F82760F3B226F0FF0608E001EB420511F812406D78A55593
:4009C0000132013BDBB2002BF4D10137232FEBD9F0BC7047104B1B78DBB203F007010F4A11701B09013213700123A2F22272137010220B490A70002001F203710870202022
:400A000001F26B21087025310A70064A13704422054B1A70704700BFCF0100496E5800406D5100405B5B00407658004008B50A46002104F05CF808BD08B504F04DF808BD4F
:400A400038B50024374B1C80502202331A70012202331A80192502331D707F2202331A801823314A13704FF45071023211800232137041F6FF0102321180023213702B48D5
:400A80002B490422FFF7D8FF06222A4B1A705222A3F580731A70284B1B78DBB2274A137040F61802264B1A8041F25122023B1A800CE0244B1B7803F0010343EA440404F072
:400AC00003044FF4F07002F067FE013D0DB1032CEFD115B90320FFF761FF1B4A4FF48073138007231370002318490B704820023108701370053213700222154B1A70042265
:400B00000A331A70134A137843F01F031370013A137843F001031370013A137843F08003137038BD804000408A40004000410040700B0048004300400F010049A146004069
:400B40002242004025420040044000400640004001400040A2430040012807D8044B53F820201844017A13780B431370704700BF3C4C0000012808D8044B53F82020184428
:400B8000017A137823EA0103137070473C4C0000092809D8054B03EB8002D268184490F8341013780B431370704700BF3C4C000009280AD8054B03EB8002D268184490F8DD
:400BC0003410137823EA0103137070473C4C000038B572B601223D4B1A70FFF731FF3C4A137843F00403137000240BE0394963001A1952000A44106CB2F84410FFF716FFC9
:400C00000134E4B2082CF1D900240BE03149A3001A1952000A44906FD16F8022FFF70CFF0134E4B2002CF1D04FF090402A49FFF7B7FE4FF44072294B1A800A2411331C7024
:400C400040F20332353B1A80254A137843F0020313701032137843F002031370214D2B7843F040032B70A2F58632513A137843F0100313701C481D492246FFF7DDFE1C480F
:400C80001C492246FFF7D8FE1B481C490822FFF7D3FE1B481B492246FFF7CEFE1A481B490822FFF7C9FE1A481A490822FFF7C4FE194A137843F008031370FFF78BFE174810
:400CC00029460E22FFF7B8FE38BD00BF00480040E84600403C4C0000900000487258004003500140A0430040F0510040340B004810510040400B0048225100404C0B004850
:400D000040510040540B004852510040600B004862510040680B004822430040B043004010B59DF80840012C4AD10138092826D8DFE800F00525250525250D15251D0F2BDA
:400D400002D9214800781BE02048007818E00F2B02D91F48007813E01E48007810E00F2B02D91D4800780BE01C48007808E00F2B02D91B48007803E01A48007800E00020E1
:400D800040B201EB401101FB02F1C90B8AB20D2B0BD8C3F10E0289B211418AB2124901EB8401013301F8023C05E00F4B03EB84030F2103F8021C013C0B4B23F8242010BD6A
:400DC000002002F0F9FC10BD180100491C010049190100491D0100491A0100491E0100491B0100491F010049AC81FF1FF8B5074602F0DAFC06460D4D2B7843F003032B70C9
:400E00000B4C237843F0030323700A4B1F70032002F0EAFC2B7803F0FC032B70237803F0FC032370304602F0C3FCF8BDF8460040F9460040925800400022314B1A71012870
:400E40005DD170B538222F4B1A70052602331E70072201331A70002401331C7001331C70162201331A7002331C7001331C7001331C7001250A331D70142203F527631A70DF
:400E8000092201331A700A231F4A137001321470112103321170122101321170013215700232147001321470013213704322174B1A704420FFF79AFF5822154B1A700133F1
:400EC0001C7005331E70022201331A7001331C7001331C70204602F05BFA4FF47A720D4B1A605520294602F077FA40F25B10294602F0F6FA1D20084902F080FC70BD70477B
:400F0000AC81FF1F004E0040865800409158004094580040F481FF1F71110000F0B583B0284D01272F70284E00247471102002F041FA102002F0C2FA1D20072102F072FCBD
:400F40000422224B1A7001331C7007331C70204A137843F0180313701E4B1C7003F2F5231C7001331C700A23A2F2872213700132147002321470122105321170132101320C
:400F80001170043214701421A2F68C2211700097204648F6B65147F60602FFF7C1FE2B7806EB830313F8022C0B4B1A702B78013B36F82320094B1A802878FFF73DFF03B0C8
:400FC000F0BD00BF3081FF1FAC81FF1F96580040075B0040935800400E4E00400C4E004070B502F0E1FB06462A4B1B782A4B1A7842F001021A701A7842F010021A7010338A
:401000001A7842F001021A701A7842F010021A70224D2B7843F002032B70214C237843F0020323701F4A137843F003031370032002F0DAFB2B7803F0FD032B70237803F0EE
:40104000FD032370184A137843F0060313707A22164B1A70164A137843F0010313701032137843F0010313700F3A137843F0010313701032137843F0010313704FF00053D7
:401080000C4A1360A2F5C0721360304602F090FB70BD00BF3081FF1FAA430040F8460040F9460040915800407758004082580040A143004080E200E008B5084B9B794BB973
:4010C000064BDB7913F0FF0F01D1FFF727FF0122024B9A71FFF784FF08BD00BFAC81FF1F024A137843F0010313707047004E0040094B1B7913F0FF0F03D0074B5B79DBB234
:4011000003E0064B1B7803F00103012B01D00028EED01846704700BFAC81FF1F014E00400E4B1B7803F00303012B03D80C4B188880B209E00A4A12780A49087842EA002065
:40114000032B01D1084B1B78084B1B7913F0FF0F02D00022054B5A7100B27047144E0040104E0040114E0040124E0040AC81FF1F704700BF10B502F017FB0446134A1378DE
:4011800043F02003137002F0F1FA02F015FA02F06BFA0F4A137843F010031370103A137843F01003137002F5A6520532137843F001031370204602F0FBFA0122054B1A6031
:4011C000054A137843F08003137010BD96640040BB43004000E100E0766500400130C0B2072808D0C20800F0070101238B4002498A5C1342F2D070473481FF1F024B1878B1
:4012000000F00100704700BF0782FF1F10B50B4B195C1A18147A03EB80031B6909221A700F2900D10721054A02EB8102D26A137823431370FFF7ACFC10BD00BFC04C0000D0
:4012400070B505460B4B1C5C03441E7AFFF7B0FC0F2C00D10724074800EB8404E26A137823EA0603137000EB8500036908221A7070BD00BFC04C000010B5002404E020468B
:40128000FFF7DEFF0134E4B2062CF8D910BD00BF10B50E4A137803F0FC0313700C4B1B781B020C4921F81030A2F5BA7212781343DB4321F81030FFF7C3FF002002F0F0F962
:4012C000054A137843F00103137010BD7665004012640040F881FF1F70580040024B187040081033187070472665004038B5084B034493F84C50074C2044007902F0D0F91A
:40130000054B5A5D054B1A70E07AFFF7E7FF38BDC04C00003481FF1FB481FF1F5564004038B50546FFF7E2FF084C237843F001032370074A137803F0FE0313702846FFF7F7
:4013400065FF237843F00203237038BD766500407058004008B5054B00221A70044A107081221A70FFF7DCFF08BD00BF0782FF1F0682FF1F10B500220A4B1A700A4CFF23F7
:4013800023702078FFF72AFF20702378DBB2062B07D8044A137843F0010313702078FFF7BFFF10BD0782FF1F0682FF1F012805D1054A137803F0EF0313707047024A137853
:4013C00043F01003137070477665004038B5FFF753FF0220FFF7EAFF02F0E6F9284A137843F00303137002F0E3F9B822254B1A70FF2420331C70012540331D7002F0D4F909
:40140000214A137843F003031370033A137843F00303137002F0CCF91C4B1C7020331C70403B1C701D331C7030331C70103B1C70174B1D600020174902F0E0F900200721D2
:4014400002F0F0F902F08EF90720FFF7A1FB0820FFF79EFB0920FFF79BFB0F4A137843F00403137002F0E2F802F03AF9002002F04DF9042002F05AF9002002F011F938BD8F
:401480009664004026640040956400402564004080E100E0291800007665004008B5054BDB7823B9FFF792FF0122024BDA70FFF761FE08BDB481FF1F10B40C4B1B5C0C4AB7
:4014C00032F810200B4921F8102000210A4C21540A4C215423B1591E094CE45C094B5C54094B23F810205DF8044B70470C4D0000F881FF1F2082FF1F1082FF1F1882FF1F48
:401500004081FF1FB881FF1F3082FF1F10B50446FFF720FFFFF772FE0028FBD12046FFF7CBFF10BD10B5002404E02046FFF7EEFF0134E4B2062CF8D910BD00BFF0B5C40853
:4015400000F0070201239340DBB21E4A125C1E4DAE183779317AAE5C22B901251B4A9570022201E0013AD2B2194D2D5D1D420DD0DFF860E01EF80000791A88421BDA25EA99
:40158000030513490D5511498E5414E0DFF844E01EF80000394488420BDD11460B48825C012A02D81D430A480555013A0748425401E006498E54064A105D184000D0012024
:4015C000F0BD00BF0C4D00004081FF1FB881FF1F4082FF1F1882FF1F70B5094B1C5C184405792544EDB200262046FFF7A7FF00B101260134E4B2AC42F6D3304670BD00BFA1
:40160000144D000070B4094D05440026FF20334608E0EC5C944203D9A64201D2264618460133DBB28B42F4D370BC70471882FF1FF0B59DF81450284C2144044610B1461E8B
:40164000F6B200E00026601CC0B211F804E0234F87F805E024B900263E71095CB9710DE0013A944205D1895D1C4A11710021917104E08E5D194A1671095C9171174A1279F9
:40168000AA4203D9521B15490A7102E00021134A1171124A5179491BC9B251719279AA4203D9551B0D4A957102E000200B4A90710A4A90791579421B29440844120292FBD9
:4016C000F0F000EB04201BB200FB03F000F5FE40C0F30740F0BD00BF1882FF1FB881FF1F70B582B004460E4B1E5C03441D790D4B0344304629461A79FFF784FFFF280BD0B5
:40170000084B1C44237B009331462A464FF4C853FFF78EFF80B201E04FF6FF7002B070BD144D00004081FF1F0844C0F34F007047F8B50446294B1B5C294A13441E7B294D57
:40174000294B33F8100035F81410FFF7EDFF25F81400264B33F81420824203D8851AADB2012702E0151AADB2002787B9142D0ED91F4B1B5D042B06D92046FFF79DFE0022B9
:401780001B4B1A5518E00133194A135514E0B3B2AB4202D2132D0FD877B916490B5D43EA02231844801AC0F30F22104B23F81420085500220E4B1A55B6B2AE4209D247B1DD
:4017C000FF2D03D9FF220C4B1A55F8BD0A4B1D55F8BD0022084B1A55F8BD00BF0C4D00004081FF1F3082FF1FF881FF1F2082FF1F0882FF1F1082FF1F1882FF1F10B5002419
:401800000DE0E20804F0070101238B4005498A5C134202D02046FFF78BFF0134E4B2062CEFD910BD3481FF1F10B5114B1878FFF72FFD104B1B7813F0800F05D00D4A137836
:4018400003F0FE03137010BD094C2078FFF7C6FC20702378DBB2062B03D82078FFF760FD10BD044A137803F0FE03137010BD00BF0682FF1F0782FF1F10B50B4C237803F030
:401880009F032370237803F0F00323702378184340F010002070012001F0A6FF237803F0EF03237010BD00BF2051004038B505460E4C237843F020032370237803F0BF03AC
:4018C0002370002001F090FF237803F0F003237023781D4345F010052570012001F084FF237803F0EF03237038BD00BF2051004070B5354B1A7802F08002D2B21A70334985
:401900000A7802F0F00242F00F020A7001310A7802F0F0020A7001310A7802F0F0020A701A7802F0DF021A701A7842F040021A704FF4CA76002001F057FF234D2B7843F0B1
:4019400010032B70012001F04FFF214B1C78E4B22B7803F0EF032B70002001F045FF04F00804E4B22B7843F010032B70012001F03BFF2B7803F0EF032B7014B90A2001F0DA
:4019800033FF013E0CB1002ED4D10F4A137803F0BF031370137803F08003DBB213700232137803F0F00313700132137803F0F00343F00F0313700132137803F0F00343F08E
:4019C0000F03137070BD00BF20510040225100402151004010B50446FFF78AFF2009FFF765FF04F00F00FFF761FF10BD38B505460078012404E0FFF7EDFF285D0134E4B22E
:401A00000028F8D138BD00BF10B50446FFF770FF2009FFF731FF04F00F00FFF72DFF10BD08B5282001F0CAFE0320FFF725FF052001F0C4FE0320FFF71FFF0F2001F0BEFE66
:401A40000320FFF719FF012001F0B8FE0220FFF713FF052001F0B2FE0620FFF7D5FF0E20FFF7D2FF2C20FFF7CFFF0820FFF7CCFF0120FFF7C9FF0C20FFF7C6FF0320FFF7C0
:401A8000C3FF052001F09AFE08BD00BF08B50C20FFF7BAFF0122014B1A7008BDC081FF1F08B5054B5B7823B9FFF7BAFF0122024B5A70FFF7EBFF08BDC081FF1F08B50328EC
:401AC00019D8DFE800F002070D1381F08000FFF79BFF08BDA1F14000C0B2FFF795FF08BDA1F16C00C0B2FFF78FFF08BDA1F12C00C0B2FFF789FF08BDF8B501F055FE0746D2
:401B0000404A137843F0010313701032137843F00103137001263C4B1E700225943B1D7002F5E2521B32137803F07F031370002001F05AFE354C237803F0F9032370344A10
:401B4000137803F0DF031370237833432370304601F04AFE282001F047FE2E4B1A7802F07F021A701A7802F0BF021A7023782B432370284601F038FE237843F00403237041
:401B80000023254A137001321370384601F010FE1720072101F046FE1720204901F02EFE1820072101F03EFE18201D4901F026FE1520072101F036FE15201A4901F01EFE25
:401BC0003046072101F02EFE3046174901F016FE2846072101F026FE2846144901F00EFE0320072101F01EFE0320114901F006FE0C20072101F016FE0C200E4901F0FEFD4A
:401C0000F8BD00BFA54300409D6000409443004012600040F851004084600040D9260000A9240000D52600001D26000055260000912600006929000010B5002304E0012496
:401C4000244AD4542344DBB2012BF8D9224B18700023224A1370224A1370224A1370224A1370224A1370224A1370224A1370224B4FF400021A604FF080721A604FF4001210
:401C80001A6002221A6004221A6008221A6011B1012906D00BE0194A137803F0FE0313700AE0164A137843F00103137004E0134A137843F0010313700322114B1A708022F4
:401CC000203B1A70012001F067FD04220D4B1A7010BD00BFF482FF1FEF82FF1FEE82FF1F6082FF1F6182FF1F6282FF1FF282FF1F6382FF1F5F82FF1F00E100E00960004043
:401D0000286000401260004038B505460C46064B1B7823B9FFF7F0FE0122034B1A7028462146FFF789FF38BDC281FF1F002304E001210E4AD1540B44DBB2012BF8D90023B5
:401D40000B4A13700B4A13700B4A13700B4A13700B4A13700B4A13700B4A137003220B4B1A708022203B1A70704700BFF482FF1FEE82FF1F6082FF1F6182FF1F6282FF1F54
:401D8000F282FF1F6382FF1F5F82FF1F28600040014B1878704700BF6182FF1F00EB40008000024B18444078704700BF8082FF1F431EDBB2072B0BD8064B00011A18185CD7
:401DC00000F00F00537843EA0020023880B2704700207047FC5F0040431EDBB2072B3BD8F0B4074600EB40039B001C4C2344DB889BB2C3F500739A4207D900EB40039B001B
:401E00002344DA88C2F5007292B200EB40039B00124C2344DB7843EA1223114D04012E192B55D3B2737039B909E0CE5C3D010D4C665501339BB200E000239342F5D34300DC
:401E400003449B00054A134400225A705A79D2B20001054B1A54F0BC704700BF8082FF1FFC5F004078600040FE5F0040431EDBB2072B0BD8430003449B00054A1344002256
:401E80005A705A79D2B20001024B1A54704700BF8082FF1FFE5F004070B5D9B1054614460E46C8B1082819D8FFF782FFA04203D22846FFF77DFF0446002305E02901094AF3
:401EC000525CF25401339BB2A342F7D32846FFF7CDFF04E0002402E0002400E00024204670BD00BF786000400246002001E0013080B2135C002BFAD1704700BF10B4FF24A4
:401F000000220EE00A4B9B5C03EB43039B0009490B449B78DBB2834201D1144602220132D2B2012AEED920465DF8044B704700BF4C82FF1F8882FF1F10B5204C2079FFF723
:401F4000DDFF237813F0800F0ED06378DBB2212B2FD11B4B07221A80C0EBC000194A1044586000F00FFB10BD144B5B78DBB2202B02D0222B10D01EE0114A07231380C0EB32
:401F8000C00310490B4453600F4A135C43F00103135400F01FFB10BD084B9B780B4A22F81030094A135C43F00203135400F0AAF910BD002010BD002010BD00BF00600040B7
:401FC0007082FF1F5081FF1F5482FF1F5882FF1F10B500241F4B1C701F4B1C705C700AE01E4B185DC0B2431EDBB2072B01D8FFF73DFF0134E4B2012CF2D9194B1B7813F033
:40200000FF0F1AD0154B1B7813F0FF0F17D0154B1B7813F0FF0F14D0114B1B78DBB2082B11D80E4B1B78DBB2082B0ED80D4B1B78DBB2082B0BD8002010BD012010BD012021
:4020400010BD012010BD012010BD012010BD012010BD00BFC381FF1F5482FF1F4882FF1F4482FF1F4C82FF1F2DE9F8438046224B1B78224AD65CF6B2FFF736FF0546002714
:40208000344606EB46039B001D4A13441B899BB2AB4208D206EB46039B001344B3F808901FFA89F900E0A946304608EB07014A46FFF792FEC9EB0505ADB245B906EB4603A6
:4020C0009B000F4A13441B899BB2994510D14F44BFB204EB44039B00094A13445B7813F0FF0FF6D025B9304600210A46FFF774FE002DC5D1BDE8F883C381FF1F4482FF1F66
:402100008082FF1F08B5034B1B78034AD05CFFF745FE08BDC381FF1F4882FF1F08B5034B1B78034AD05CFFF739FE08BDC381FF1F4482FF1F08B50146074B1B78074AD05C6B
:40214000C0B200EB40039B00054A13441A8992B2FFF7A2FE08BD00BFC381FF1F4882FF1F8082FF1FC37803F0030390F9020000280FDA032B06D002F001030B48C15442F0AF
:4021800001020EE0C2F380030848C15442F0040207E0032B05D0C2F340030548C15442F002021046704700BF4482FF1F4C82FF1F4882FF1F1C4B19781C4A13880B449BB2C6
:4021C000138000230EE01A4A51680978C9B21948C1545168013151600133DBB21188013989B21180124A128892B20AB1072BEAD90D4A1278D2B2082A00D05BB10E490A787A
:4022000082F080020A700F210C4A117002210C4A117004E0022209490A7009490A70094A1370014A137070475F82FF1FEC82FF1F7082FF1F006000406482FF1F5E82FF1FF7
:40224000EE82FF1F7C82FF1F0222074B1A708022064B1A700F22064B1A700023054A1370054A137001207047EE82FF1F6482FF1F5E82FF1F5F82FF1F7C82FF1F08B5FFF72E
:4022800099FF08BD10B4184B197801F00F010239C9B2164A13880B449BB21380002010E0134B5C68134A125CD2B222705A6801325A600130C0B20139C9B21A88013A92B2ED
:4022C0001A800B4B1B889BB20BB10029E8D10A4B19700A4A137883F0800313700B22084B1A705DF8044B704729600040EC82FF1F7082FF1F006000407C82FF1F6482FF1FA0
:402300005E82FF1F0623064A1370064A13708022054B1A700022054B1A700120704700BFEE82FF1F5E82FF1F6482FF1F7C82FF1F064B9B6843B1054B9A6810709A680449AC
:402340000988518000229A60704700BF7082FF1FEC82FF1F08B5134B1A78D2B21A701B78DBB213F0800F02D00F4A137008BD0220FFF7DEFF0D4B1B7803F06003202B05D097
:40238000402B06D043B900F0D5FD06E001F098FB03E000F07DFF00E0002010B90322024B1A7008BD286000405E82FF1F0060004008B5084B1978084A13880B449BB21380B8
:4023C0000022064B1A700120FFF7B2FF0322044B1A7008BD5F82FF1FEC82FF1FEE82FF1F5E82FF1F08B50B4B1B78DBB2042B06D0062B07D0022B0BD1FFF7DAFF08BDFFF76B
:4024000041FF08BD0320FFF793FF0322024B1A7008BD00BFEE82FF1F5E82FF1F08B50022044B1A700120FFF783FF0322024B1A7008BD00BFEE82FF1F5E82FF1F08B50B4B70
:402440001B7813F0FF0F07D0084A137843F0800307490B70002313700022064B1A700120FFF766FF0322044B1A7008BDF282FF1F08600040EE82FF1F5E82FF1F08B5094BCA
:402480001B78DBB2042B06D0062B07D0022B07D1FFF7F4FE08BDFFF7C1FF08BDFFF7CEFF08BD00BFEE82FF1F08B5284B1B78DBB213F0100F48D013F0800F0CD003F00F03F0
:4024C000012B16D1FFF746FF214B1B7813F0800F11D1012312E013F0400F03D0FFF7CEFF01230BE013F0200F07D0FFF77BFF012304E0002302E0002300E0002323B3134B2E
:402500001B7813F0800F1FD1124B1B78124A12781343124A13701278D2B29A4214D10C4B1B78DBB2094A127812F0800F07D1084B1B78DBB2054A1370137803F00F03044ACC
:402540001278D2B29342EAD108BD00BF286000405E82FF1F6482FF1F7C82FF1F296000400022064B1A80064B9B682BB1044A916800230B7092685380704700BFEC82FF1F99
:402580007082FF1F08B50F4B1B889BB213B9FFF75BFE15E002220C4B1A7000220B4B1A70FFF7DEFF0A4AD179937943EA0123054A128892B29A4201D9024A1380FFF7FAFD70
:4025C000012008BD7082FF1FEE82FF1F6482FF1F0060004008B504220B4B1A7080220B4B1A70FFF7BDFF0A4AD179937943EA0123084A128892B29A4201D9064A13800B22CB
:40260000054B1A70012008BDEE82FF1F6482FF1F006000407082FF1F5E82FF1F0A4A137803F0FE031370094B9B7C094B1B7B03F00303012B04D0064AD37B83F08003D3731C
:402640000122034B5A7370470B600040FC5F00408082FF1F0B4A137803F0FD0313700A4B93F82230094B1B7E03F00303012B04D0064AD37E83F08003D3760122034B5A7670
:40268000704700BF0B600040FC5F00408082FF1F0D4A137803F0FB0313700C4B93F832300B4B93F8243003F00303012B06D0084A92F8273083F0800382F827300122044B08
:4026C00083F82520704700BF0B600040FC5F00408082FF1F704700BF08B5FFF727FB08BD08B50B4B18780138C0B200F0C9F9094B1B79DBB200EBC30042690749CB5C02EBFC
:40270000C3035B68596A0B78044A1380516008BD6182FF1F006000406C82FF1F7082FF1F08B50D4B18780138C0B200F0A9F90B4B1B79DBB200EBC30042690949CB5C02EB9E
:40274000C3035B68DB69597813F8022B42EA012204490A804B6008BD6182FF1F006000406C82FF1F7082FF1F10B50022194B1A80194B18780138C0B200F082F91749CB789E
:40278000DAB20B79DBB200EBC3004169012B20D81348C35C01EBC3014968531EDBB2022B17D802F10053013B01EBC3000B4A9278D2B211F8333093420BD3406802EB4202FF
:4027C000920081184C68034B5C60825A1A808A689A6010BD7082FF1F6182FF1F006000406C82FF1F08B55B4B1A79D2B21B7813F0800F4DD0574B5B78013B052B00F28D8068
:40280000DFE803F0212B3B8B8B03524BDB78DBB2212B09D1FFF764FF4F4B1B889BB2002B7DD0FFF7AFFE08BD4A4BDB78DBB2222B77D1FFF775FF484B1B889BB2002B72D074
:40284000FFF7A0FE08BDFFF78FFF434B1B889BB2002B6AD0FFF796FE08BD012A67D83D4B9B7813F0FF0F64D13B4901230B803B4B1A444A60FFF786FE08BD012A5BD8364921
:4028800001230B80364B1A444A60FFF77BFE08BD304B5B78DBB20A2B0DD00B2B2ED0092B4BD1FFF761FF2C4B1B889BB2002B46D0FFF790FE08BD012A43D8264B9B7813F027
:4028C000FF0F40D1234BDB78DBB224498B548B5C2449895CDBB28B4203D20021214B995409E0204B9B5CDBB2012B04D91B4B9B5CDBB21C498B54FFF705FD08BD012A24D84A
:40290000144B9B78DBB2012B21D8124B9B78DBB213498B54FFF7F6FC08BD002008BD002008BD002008BD002008BD002008BD002008BD002008BD002008BD002008BD002061
:4029400008BD002008BD002008BD002008BD002008BD00BF006000407082FF1FFC82FF1FF482FF1FF882FF1F08B500F00DFF08BD70B588B0054603AC174E0FCE0FC4336842
:40298000237035B322232B7003236B7001A800F061FF002402231AE008AA224412F81C2C08A901EB121111F8141CE954581C00212954981C02F00F0208AE324412F8142CA0
:4029C0002A54DA1CA9540134E4B20433DBB2212BE2D908B070BD00BF204D000010B401223DE0114613010C242148C45402EB42039B00204803445B7913F0FF0F12D002EB6F
:402A000042039B0003441B7913F0800F04D01001194B03449C700AE01001174B03440820987004E01001144B0344802098704B000B449B000F480344DC88E4B208010C496B
:402A400001448C71D888C0F30720C871D888C0B20871DB88C3F307234B710132D2B2082ABFD9FF22054B1A705DF8044B704700BF706000408082FF1FFC5F00400A6000404C
:402A8000074B1B78074A02EBC30253681A7C824203D903EBC003586970470020704700BFEF82FF1F704D0000F8B5404B1B7813F0FF0F79D03D4B18780138C0B2FFF7E0FF75
:402AC000047AC2683A4B1878C0B200236AE01178814264D13749095CC9B25578A9425ED1917801F07F01D67806F00306DFF8C8E04D000D44AD000EEB05074FF0000C87F812
:402B000003C092F802C087F804C092F803C00EF805C095883D8192F90250002D0DDA012E01D1072700E00D274D000D44AD00224E35446F7101266E700CE0012E01D10527EA
:402B400000E009274D000D44AD001B4E35446F7100266E70DFF868E00F010EEB07060125B57001FA05F529448900134D29440D89C5F307250EF807500D89EDB27570CE88B5
:402B8000F6B20E4D3D44AE71CE88C6F30726EE71CE88F6B22E71C988C1F30721697108320133DBB2A34292D3F8BD00BF6182FF1F6282FF1F6C82FF1F8082FF1F706000403B
:402BC000FC5F0040034B1A78034B03EBC2035868704700BFEF82FF1F704D000008B5074B18780138C0B2FFF74BFF28B14268127900EBC203586908BD002008BD6182FF1F23
:402C00002DE9F84300220EE06D4E53009D18AD00741900217155A170E1702181A172617061710132D2B2082AEED940B90AE000226449CA546449CA540133DBB200E0002386
:402C4000012BF4D9614B1B7813F0FF0F00F0B5805E4B18780138C0B2FFF712FF80464368DB7913F0400F05D0594A137843F00103137004E0564A137803F0FE03137098F811
:402C800008704FF0000901266CE0D8F80C50002464E0AB7803F07F039E425CD1314606EB46039B00464803441B899BB2A888834205D206EB46039B00414A134418812B78D7
:402CC0004048C35CDBB26878834244D195F802C03B484B000B449B0000EB030E8EF804C095F803E000F803E0EB7803F0030395F90200002811DA012B02D14FF0070C01E01D
:402D00004FF00D0CDFF8B8E04B0058188000704480F805C00123437012E0012B02D14FF0050C01E04FF0090C25484FEA410E0EEB01039B00034483F805C0194600234B7002
:402D4000AB790A2B01D0022B05D1284631464A46FFF708FA814608350134E4B2BC4298D30136F6B2082E90D9D8F80C0000220CE0837803F07F0310F8084B03EB43039B007F
:402D800014490B449C700132D2B2BA42F0D3FFF725FF114B1860002001220AE0084C5300991889002144C8800B89184480B20132D2B2082AF2D9FFF711FEBDE8F88300BF82
:402DC0008082FF1F6C82FF1F5C82FF1F6182FF1F6382FF1F8882FF1F6882FF1F08B5154B1A7902F07F02531EDBB2072B20D8530013449B0010490B44997841F001019970F2
:402E00000021D970597841F0020159701B7913F0800F05D01201094B13448D229A7004E01201064B134489229A70FFF76BFA08BD002008BD006000408082FF1FFC5F004034
:402E4000264B1B7903F07F035A1ED2B2072A43D810B55A001A44920021490A44917801F0FE0191700021D17019017F241D484454517801F0FD015170127912F0800F14D03A
:402E800003EB4302920016490A445278D2B2012A05D11B0102461A440C23937019E01B01104A1A440D23937013E003EB430292000B490A445278D2B2012A05D11B01094A45
:402EC0001A440823937004E01B01064A1A4409239370FFF717FA10BD00207047006000408082FF1FFC5F004010B50E4B1C79E4B20D4B18780138C0B2FFF7C2FD43681B7993
:402F00009C4201D9022C0AD8084A135DDBB208490B55044B9B78DBB21355012010BD002010BD00BF006000406182FF1F6C82FF1F5C82FF1F10B5964B1B78DBB20021954A69
:402F4000118013F0800F00F0B380914A5278D2B20A2A00F27981DFE812F06F00770177017701770177010B00770198007701A000874BDB78DBB2012B09D1FFF723FE426886
:402F8000844B5A6012221A80FFF7FCFA10BD804BDB78DBB2022B13D17D4B9878FFF770FD002800F0538142687A4B5A605A68D1785A68927842EA01221A80FFF7E3FA10BD95
:402FC000734BDB78DBB2032B05D032E00A7811440133DBB201E000236F496D4A9278D2B29A4203D90A7812F0FF0FEFD1684B9B78DBB2EE2B00D16949654B9B7813F0FF0FB8
:403000000BD0634B9B78DBB2654A127C934204D1644C2046FFF7ACFC21460B7813F0FF0F00F016810B785B4A13805160FFF7AAFA10BD00F045FD10BD13F0030317D0022B5B
:4030400040F0088153490B80514B1B7903F07F0303EB43039B00544A13449A78D2B2534B1A7000225A704B60FFF78CFA10BD494902230B804E4B1A78D2B24C4B1A70002235
:403080005A704B60FFF77EFA10BD424B01221A80484A5A60FFF776FA10BD3E4A012313803B4B1B7944490B445360FFF76BFA10BD374A5278013A0A2A00F2CE80DFE812F0C4
:4030C0004B00CC009700CC000B00CC00CC00CC001300CC0030002E4B9B78DBB2374A1370FFF710F910BD2A4B9B7803F0FF041BB1601EC0B2FFF7C4FC04B110B9002C40F025
:40310000AD802C4B1B78DBB29C4206D0294B1C7001202B4B1870FFF773FDFFF7F3F810BDFFF7E2FE002800F09B80194A1379DBB21279D2B223490A70234AD25C1E49C95C43
:40314000D3B28B4204D001221D4B1A70FFF7ACFCFFF7D8F810BD03F00303012B36D04BB1022B7FD10A4B9B7813F0FF0F7CD1FFF767FE10BD064B9B78DBB2012B76D10C4A97
:40318000137803F0FD031370FFF7BCF810BD00BF006000407082FF1F104E00005C4D0000F44E00000083FF1F8082FF1FC481FF1F6382FF1F6182FF1F6C82FF1FF282FF1F19
:4031C0006082FF1F6282FF1F5C82FF1F2D4B1B79DBB2012B4CD82B4B98781B79DBB22A49CA5C22EA0002CA54FFF78CF810BD03F00303012B17D04BB1022B3BD1214B9B7875
:4032000013F0FF0F38D1FFF7E9FD10BD1D4B9B78DBB2012B32D11D4A137843F002031370FFF770F810BD174B1B79DBB2012B27D8144B98781B79DBB21349CA5C22EA0002EE
:40324000CA54FFF75FF810BD002010BD002010BD002010BD002010BD002010BD002010BD002010BD002010BD002010BD002010BD002010BD002010BD002010BD002010BD20
:40328000002010BD00600040F082FF1F6382FF1F08B50B4B1B7813F0800F0CD0084B5B78DBB2012B09D1074B074A5A6012781A80FFF768F908BD002008BD002008BD00BFFB
:4032C000006000407082FF1F344D0000024A137843F08003137070477A650040014B1880704700BF146A0040014B1880704700BF946A0040014B1880704700BF546A0040AF
:40330000014B1880704700BF746A004008B5104A137803F0C00343F0090313702032137843F0010313700132137843F0010313704FF48060FFF7D2FF4FF48060FFF7D4FF16
:403340004FF48070FFF7D6FF7F20FFF7D9FF08BD7A65004008B5054B1B7823B9FFF7D6FF0122024B1A70FFF7B1FF08BDC881FF1F10B5002404E02046FDF7FCFB0134E4B202
:40338000012CF8D9FF22014B1A7010BD6C81FF1F10B50446FFF7ECFF2046FDF7DDFB014B1C7010BD6C81FF1F014B188880B2704780400040034B1A7800F0F80010431870F6
:4033C000704700BF82400040024B187800F00700704700BF8240004070B505460E46FFF7F3FF0446FFF7E0FF854256D02B4B1B7803F0010294B900B185B938B9284B1D8015
:40340000284A137803F0BF03137070BD254A137843F040031370224B1D8070BD22B3002321490B7001240F310C7004310B700C390B7803F07F030B701A4B1B7813F0080FC8
:4034400000D08DB9194B18800721013B1970164B1B7813F0010FFAD110490B7803F0FE030B700021104B19700C4B1B7813F0010F0DD00E4B1D800EB1032200E001220A4B1F
:403480001A70094B1B7813F0010FFAD170BD044B1D8002490B7813430B7070BDA243004080400040824000400140004002400040014B188880B2704700410040034B1A7878
:4034C00000F0F80010431870704700BF02410040024B187800F00700704700BF0241004070B505460E46FFF7F3FF0446FFF7E0FF854256D02B4B1B7803F0010294B900B18E
:4035000085B938B9284B1D80284A137803F0BF03137070BD254A137843F040031370224B1D8070BD22B3002321490B70012413310C7004390B7008390B7803F07F030B7092
:403540001A4B1B7813F0080F00D08DB9194B18800721013B1970164B1B7813F0010FFAD110490B7803F0FE030B700021104B19700C4B1B7813F0010F0DD00E4B1D800EB189
:40358000032200E001220A4B1A70094B1B7813F0010FFAD170BD044B1D8002490B7813430B7070BDA143004000410040024100400140004002400040054A137843F0080317
:4035C00013701032137843F008031370704700BFA74300400F490B7803F0FC0200F0030313430B7001280AD10B4B1B78DBB20B4A13700B4B1B78DBB2013213707047094BFE
:403600001B78DBB2054A1370074B1B78DBB201321370704743580040130100493646004017010049B3010049BB01004908B50020FFF7D0FF0B4B1A7842F020021A701A7868
:4036400002F0FB021A701A7842F008021A7003F527731A7802F0E7021A701A7842F010021A7008BD43580040054A137843F0020313701032137843F002031370704700BF5D
:40368000A8430040054B1A7802F0FD021A701A7800F0020010431870704700BF24580040014B1870704700BF815B0040094B1B7803F00C035B08084A127812F0040F00D07E
:4036C000013303F1924393F83031DBB2034A1370704700BF24580040255800400946004008B51422084B1A700133002018701A7842F004021A701A7842F002021A70FFF7BE
:40370000C1FFFFF7D3FF08BD2458004008B5064B1A7802F0FB021A701A7800F0040010431870FFF7C3FF08BD2558004008B5064B1A7802F0F3021A701A7800F00C001043DA
:403740001870FFF7B3FF08BD2458004010B5002404E02046FDF72CFA0134E4B2092CF8D910BD00BF08B5FFF7F1FF08BD054A137843F0020313701032137843F00203137069
:40378000704700BFA2430040024B1878C0F38010704700BF8F4500400230800803D000BF01380046FCD17047EFF3108072B6704780F31088704700BF01BE704710B504461E
:4037C00005E0084B1868FFF7E7FFA4F50044B4F5004FF6D8034B586800FB04F0FFF7DCFF10BD00BF7081FF1F08B5034B1B7A03FB00F0FFF7D1FF08BD7081FF1F70B5044692
:403800000E46074B1D681F2802D90020FFF7D4FF04F01F04103455F8240045F8246070BD08ED00E038B504460D46072902D90020FFF7C2FF1F2C02D90020FFF7BDFF04F06B
:403840001F0000F1604000F564406D01EDB2057038BD00BF134B1B78DBB20360124A127843EA02230360114A127843EA024303600F4A127843EA026303600E4B1B78DBB242
:4038800043600D4A127843EA022343600B4A127843EA024343600A4A127843EA02634360704700BF0301004904010049EC46004002010049010100490001004905010049D5
:4038C000060100497222084B1A70202207331A700622A3F261131A70472210331A70012251331A70704700BF8465004008B5FFF75BFF094A137843F02003137007321378B8
:4039000043F010031370A2F58072137843F010031370FFF74DFF08BD9465004008B5054B1B7823B9FFF7CEFF0122024B1A70FFF7DDFF08BDC981FF1F084B1B78DBB213F0F3
:40394000200F06D0064A1078C0B213F01E0F02D17047002070470020704700BF6B6500404764004008B5FFF71FFF064B1A7842F001021A701A7802F0FE021A70FFF718FF48
:4039800008BD00BF97640040034B1B7813F0040FFAD1024B187070476B6400404765004038B5074B1B782BB938BDFFF7EDFF0134A4B201E005460024285D0028F5D138BD2F
:4039C000C981FF1F08B5FFF7EFFE064B1A7842F001021A701A7802F0FE021A70FFF7E8FE08BD00BF976500407222074B1A700022023B1A7006225A3B1A70472210331A709D
:403A0000012248331A7070478764004008B5FFF7CBFE094A137843F020031370023A137843F010031370023A137843F010031370FFF7BEFE08BD00BF9764004008B5054BAB
:403A40001B7823B9FFF7D0FF0122024B1A70FFF7DDFF08BDCB81FF1F084B1B78DBB213F0200F06D0064A1078C0B213F01E0F02D17047002070470020704700BF6564004022
:403A800045650040034B1B7813F0040FFAD1024B18707047636400404364004038B5074B1B782BB938BDFFF7EDFF0134A4B201E005460024285D0028F5D138BDCB81FF1FA6
:403AC00008B5144B1B7803F00303012B02D0022B04D00FE00F4B1B79DBB20CE00D4B1B7903F07F0303EB43039B000B4A13449B78DBB200E00023094A1268D35C022B04D04D
:403B0000032B05D1FEF76EFE08BDFEF715FA08BD002008BD006000408882FF1F6882FF1F81F0004102E000BF83F0004330B54FEA41044FEA430594EA050F08BF90EA020F0C
:403B40001FBF54EA000C55EA020C7FEA645C7FEA655C00F0E2804FEA5454D4EB5555B8BF6D420CDD2C4480EA020281EA030382EA000083EA010180EA020281EA0303362D66
:403B800088BF30BD11F0004F4FEA01314FF4801C4CEA113102D0404261EB410113F0004F4FEA03334CEA133302D0524263EB430394EA050F00F0A780A4F10104D5F1200E6F
:403BC0000DDB02FA0EFC22FA05F2801841F1000103FA0EF2801843FA05F359410EE0A5F120050EF1200E012A03FA0EFC28BF4CF0020C43FA05F3C01851EBE37101F0004589
:403C000007D54FF0000EDCF1000C7EEB00006EEB0101B1F5801F1BD3B1F5001F0CD349085FEA30004FEA3C0C04F101044FEA445212F5800F80F09A80BCF1004F08BF5FEAA7
:403C4000500C50F1000041EB045141EA050130BD5FEA4C0C404141EB010111F4801FA4F10104E9D191F0000F04BF01460020B1FA81F308BF2033A3F10B03B3F120020CDA7F
:403C80000C3208DD02F1140CC2F10C0201FA0CF021FA02F10CE002F11402D8BFC2F1200C01FA02F120FA0CFCDCBF41EA0C019040E41AA2BF01EB0451294330BD6FEA040490
:403CC0001F3C1CDA0C340EDC04F11404C4F1200220FA04F001FA02F340EA030021FA04F345EA030130BDC4F10C04C4F1200220FA02F001FA04F340EA0300294630BD21FACA
:403D000004F0294630BD94F0000F83F4801306BF81F480110134013D4EE77FEA645C18BF7FEA655C29D094EA050F08BF90EA020F05D054EA000C04BF1946104630BD91EA1D
:403D4000030F1EBF0021002030BD5FEA545C05D14000494128BF41F0004130BD14F580043CBF01F5801130BD01F0004545F0FE4141F470014FF0000030BD7FEA645C1ABFCD
:403D8000194610467FEA655C1CBF0B46024650EA013406BF52EA033591EA030F41F4002130BD00BF90F0000F04BF0021704730B54FF4806404F132044FF000054FF0000194
:403DC00050E700BF90F0000F04BF0021704730B54FF4806404F1320410F0004548BF40424FF000013EE700BF42004FEAE2014FEA31014FEA02701FBF12F07F4393F07F4F13
:403E000081F06051704792F0000F14BF93F07F4F704730B54FF4607401F0004521F0004120E700BF50EA010208BF704730B54FF000050AE050EA010208BF704730B511F084
:403E4000004502D5404261EB41014FF4806404F132045FEA915C3FF4DCAE4FF003025FEADC0C18BF03325FEADC0C18BF033202EBDC02C2F1200300FA03FC20FA02F001FA72
:403E800003FE40EA0E0021FA02F11444C1E600BF70B54FF0FF0C4CF4E06C1CEA11541DBF1CEA135594EA0C0F95EA0C0F00F0DEF82C4481EA030621EA4C5123EA4C5350EAE2
:403EC000013518BF52EA033541F4801143F4801338D0A0FB02CE4FF00005E1FB02E506F00042E0FB03E54FF00006E1FB03569CF0000F18BF4EF0010EA4F1FF04B6F5007F41
:403F000064F5407404D25FEA4E0E6D4146EB060642EAC62141EA55514FEAC52040EA5E504FEACE2EB4F1FD0C88BFBCF5E06F1ED8BEF1004F08BF5FEA500E50F1000041EB3B
:403F4000045170BD06F0004646EA010140EA020081EA0301B4EB5C04C2BFD4EB0C0541EA045170BD41F480114FF0000E013C00F3AB8014F1360FDEBF002001F0004170BDE5
:403F8000C4F10004203C35DA0C341BDC04F11404C4F1200500FA05F320FA04F001FA05F240EA020001F0004221F0004110EBD37021FA04F642EB06015EEA430E08BF20EA2B
:403FC000D37070BDC4F10C04C4F1200500FA04F320FA05F001FA04F240EA020001F0004110EBD37041F100015EEA430E08BF20EAD37070BDC4F1200500FA05F24EEA020E05
:4040000020FA04F301FA05F243EA020321FA04F001F0004121FA04F220EA020000EBD3705EEA430E08BF20EAD37070BD94F0000F0FD101F00046400041EB010111F4801F29
:4040400008BF013CF7D041EA060195F0000F18BF704703F00046520043EB030313F4801F08BF013DF7D043EA0603704794EA0C0F0CEA135518BF95EA0C0F0CD050EA41063E
:4040800018BF52EA4306D1D181EA030101F000414FF0000070BD50EA410606BF1046194652EA430619D094EA0C0F02D150EA013613D195EA0C0F05D152EA03361CBF1046B5
:4040C00019460AD181EA030101F0004141F0FE4141F470014FF0000070BD41F0FE4141F4780170BD70B54FF0FF0C4CF4E06C1CEA11541DBF1CEA135594EA0C0F95EA0C0F35
:4041000000F0A7F8A4EB050481EA030E52EA03354FEA013100F088804FEA03334FF0805545EA131343EA12634FEA022245EA111545EA10654FEA00260EF000419D4208BFF1
:40414000964244F1FD0404F5407402D25B084FEA3202B61A65EB03055B084FEA32024FF480104FF4002CB6EB020E75EB030E22BFB61A754640EA0C005B084FEA3202B6EB71
:40418000020E75EB030E22BFB61A754640EA5C005B084FEA3202B6EB020E75EB030E22BFB61A754640EA9C005B084FEA3202B6EB020E75EB030E22BFB61A754640EADC0004
:4041C00055EA060E18D04FEA051545EA16754FEA06164FEAC30343EA52734FEAC2025FEA1C1CC0D111F4801F0BD141EA00014FF000004FF0004CB6E711F4801F04BF014364
:404200000020B4F1FD0C88BFBCF5E06F3FF6AFAEB5EB030C04BFB6EB020C5FEA500C50F1000041EB045170BD0EF0004E4EEA113114EB5C04C2BFD4EB0C0541EA045170BDFF
:4042400041F480114FF0000E013C90E645EA060E8DE60CEA135594EA0C0F08BF95EA0C0F3FF43BAF94EA0C0F0AD150EA01347FF434AF95EA0C0F7FF425AF104619462CE76B
:4042800095EA0C0F06D152EA03353FF4FDAE1046194622E750EA410618BF52EA43067FF4C5AE50EA41047FF40DAF52EA43057FF4EBAE12E74FF0FF3C06E000BF4FF0010C18
:4042C00002E000BF4FF0010C4DF804CD4FEA410C7FEA6C5C4FEA430C18BF7FEA6C5C1BD001B050EA410C0CBF52EA430C91EA030F02BF90EA020F0020704710F1000F91EAC0
:40430000030F58BF994208BF90422CBFD8176FEAE37040F0010070474FEA410C7FEA6C5C02D150EA013C07D14FEA430C7FEA6C5CD6D152EA033CD3D05DF8040B704700BF41
:404340008446104662468C461946634600E000BF01B5FFF7B7FF002848BF10F1000F01BD4DF808EDFFF7F4FF0CBF012000205DF808FB00BF4DF808EDFFF7EAFF34BF01202A
:4043800000205DF808FB00BF4DF808EDFFF7E0FF94BF012000205DF808FB00BF4DF808EDFFF7CEFF94BF012000205DF808FB00BF4DF808EDFFF7C4FF34BF012000205DF8E8
:4043C00008FB00BF4A0011D212F5001211D20DD56FF47873B3EB62520ED44FEAC12343F0004343EA505323FA02F070474FF00000704750EA013002D14FF0FF3070474FF0AD
:40440000000070474FEA4102B2F1E04324BFB3F5001CDCF1FE5C0DD901F0004C4FEAC0024CEA5070B2F1004F40EB830008BF20F00100704711F0804F21D113F13872BCBF87
:4044400001F00040704741F480114FEA5252C2F11802C2F1200C10FA0CF320FA02F018BF40F001004FEAC1234FEAD32303FA0CFC40EA0C0023FA02F34FEA4303CCE77FEAB4
:40448000625307D150EA01331EBF4FF0FE4040F44000704701F0004040F0FE4040F40000704700BF80F0004002E000BF81F0004142001FBF5FEA410392EA030F7FEA226CFE
:4044C0007FEA236C6AD04FEA1262D2EB1363C1BFD218414048404140B8BF5B42192B88BF704710F0004F40F4000020F07F4018BF404211F0004F41F4000121F07F4118BF87
:40450000494292EA030F3FD0A2F1010241FA03FC10EB0C00C3F1200301FA03F100F0004302D5494260EB4000B0F5000F13D3B0F1807F06D340084FEA310102F10102FE2AB2
:4045400051D2B1F1004F40EBC25008BF20F0010040EA03007047490040EB000010F4000FA2F10102EDD1B0FA80FCACF1080CB2EB0C0200FA0CF0AABF00EBC2505242184386
:40458000BCBFD0401843704792F0000F81F4000106BF80F400000132013BB5E74FEA41037FEA226C18BF7FEA236C21D092EA030F04D092F0000F08BF0846704790EA010F96
:4045C0001CBF0020704712F07F4F04D1400028BF40F00040704712F100723CBF00F50000704700F0004343F0FE4040F4000070477FEA226216BF08467FEA236301464202E1
:4046000006BF5FEA412390EA010F40F4800070474FF0000304E000BF10F0004348BF40425FEA000C08BF704743F0964301464FF000001CE050EA010208BF70474FF0000304
:404640000AE000BF50EA010208BF704711F0004302D5404261EB41015FEA010C02BF84460146002043F0B64308BFA3F18053A3F50003BCFA8CF2083AA3EBC25310DB01FA6F
:4046800002FC634400FA02FCC2F12002BCF1004F20FA02F243EB020008BF20F00100704702F1200201FA02FCC2F1200250EA4C0021FA02F243EB020008BF20EADC70704743
:4046C0004FF0FF0C1CEAD0521EBF1CEAD15392EA0C0F93EA0C0F6FD01A4480EA010C400218BF5FEA41211ED04FF0006343EA501043EA5111A0FB01310CF00040B1F5000FD0
:404700003EBF490041EAD3715B0040EA010062F17F02FD2A1DD8B3F1004F40EBC25008BF20F00100704790F0000F0CF0004C08BF49024CEA502040EA51207F3AC2BFD2F168
:40474000FF0340EAC250704740F400004FF00003013A5DDC12F1190FDCBF00F000407047C2F10002410021FA02F1C2F1200200FA02FC5FEA310040F1000053EA4C0308BFDE
:4047800020EADC70704792F0000F00F0004C02BF400010F4000F013AF9D040EA0C0093F0000F01F0004C02BF490011F4000F013BF9D041EA0C018FE70CEAD15392EA0C0F80
:4047C00018BF93EA0C0F0AD030F0004C18BF31F0004CD8D180EA010000F00040704790F0000F17BF90F0004F084691F0000F91F0004F14D092EA0C0F01D142020FD193EAF5
:404800000C0F03D14B0218BF084608D180EA010000F0004040F0FE4040F40000704740F0FE4040F4400070474FF0FF0C1CEAD0521EBF1CEAD15392EA0C0F93EA0C0F69D0D0
:40484000A2EB030280EA010C49024FEA402037D04FF0805343EA111143EA10130CF000408B4238BF5B0042F17D024FF4000C8B4224BF5B1A40EA0C00B3EB510F24BFA3EB6D
:40488000510340EA5C00B3EB910F24BFA3EB910340EA9C00B3EBD10F24BFA3EBD10340EADC001B0118BF5FEA1C1CE0D1FD2A3FF650AF8B4240EBC25008BF20F00100704733
:4048C0000CF0004C4CEA50207F32C2BFD2F1FF0340EAC250704740F400004FF00003013A37E792F0000F00F0004C02BF400010F4000F013AF9D040EA0C0093F0000F01F073
:40490000004C02BF490011F4000F013BF9D041EA0C0195E70CEAD15392EA0C0F08D142027FF47DAF93EA0C0F7FF470AF084676E793EA0C0F04D14B023FF44CAF08466EE787
:4049400030F0004C18BF31F0004CCAD130F000427FF45CAF31F000437FF43CAF5FE700BF4FF0FF3C06E000BF4FF0010C02E000BF4FF0010C4DF804CD4FEA40024FEA4103DF
:404980007FEA226C18BF7FEA236C11D001B052EA530C18BF90EA010F58BFB2EB030088BFC81738BF6FEAE17018BF40F0010070477FEA226C02D15FEA402C05D17FEA236C19
:4049C000E4D15FEA412CE1D05DF8040B704700BF844608466146FFE70FB5FFF7C9FF002848BF10F1000F0FBD4DF808EDFFF7F4FF0CBF012000205DF808FB00BF4DF808ED0F
:404A0000FFF7EAFF34BF012000205DF808FB00BF4DF808EDFFF7E0FF94BF012000205DF808FB00BF4DF808EDFFF7D2FF94BF012000205DF808FB00BF4DF808EDFFF7C8FFEF
:404A400034BF012000205DF808FB00BF42000ED2B2F1FE4F0BD34FF09E03B3EB126209D44FEA002343F0004323FA02F070474FF00000704712F1610F01D1420202D14FF003
:404A8000FF3070474FF00000704700BF0E4B70B51E460E4C0025E41AA410A54204D056F8253098470135F8E700F02EFA084B094C1E46E41AA4100025A54204D056F825309D
:404AC00098470135F8E770BD144F0000144F0000144F00001C4F000010B5431E0A44914204D011F8014B03F8014FF8E710BD03460244934202D003F8011BFAE770470000B5
:404B00000000000032352E30204300000000000032382E30204300000000000043757272656E743A000000005365743A00000000204F464600000000204F4E000A2A2A4D3C
:404B4000656E753A202020202A2A0A2A2A43757272656E742A2A0A2A2A5365745F58582E582A2A0A2A2A506F7765722A2A0A000041542B435343533D2247534D220D0000AD
:404B800041542B434D47463D310D000041542B434D47533D223138383031333135353936220D0000415445310D00000041542B434F4C503D310D000041544431383830318A
:404BC0003331353539363B0D0000000043757272656E742054656D70657261747572653A20000000205365742054656D70657261747572653A20000020506C656173652057
:404C0000636F6D65206261636B2E000031000000312E3500320000004E6F6E65000000004F6464004576656E000000004D61726B000000005370616365000000035B0040B0
:404C400024430040400000005C5100405C5100405C5100405C5100405C5100405C5100405C5100406C510040DB5A00408B5A0040402001020408101001100000005100400A
:404C80001000305100401000C0510040100000000140800600070140000900140140000800400140000A004C01400002005001402000000080060140B40A00488000000025
:404CC000050505050505050040200102040810002E5000402D50004028500040295000402A5000402B5000402C500040065200400E520040165200401E52004026520040AD
:404D00002E520040365200407E52004001020000000000000200010005010100001900003031323334353637383941424344454600000000280000000001040001000000E5
:404D40000000000000014359555342000000303030303100000000000000000012034D005300460054003100300030000100000001000000784D000001000000F44E0000D1
:404D8000000000000000000001000000904D000001000000B04E000003000000BC4D00000000000000000000000000000000000000000000B84D0000020A00000000810375
:404DC000080002000100820240000A000100030240000A00320005010902A1010901A100050919012903150025019503750181029501750581010501093009311581257F95
:404E0000750895028106C0C00000000002030000040309042C0343007900700072006500730073002000530065006D00690063006F006E0064007500630074006F007200A7
:404E40003803430044004300200043006F006D006D0075006E00690063006100740069006F006E00200049006E007400650072006600610063006500260343004400430013
:404E800020004400610074006100200049006E00740065007200660061006300650010035500530042005500410052005400000009024300020101C0320904000001020218
:404EC0000002052400100104240202052406000105240100010705810308000A09040100020A0000030705820240000007050302400000001201000202000008B40432F214
:404F00000100010480010000F8B500BFF8BC08BC9E4670474D00000029090000F8B500BFF8BC08BC9E46704729000000404F00000881FF1F78000000A801000000000000ED
:404F400000000000010000000C4C0000104C0000144C0000184C0000204C0000244C00002C4C0000344C0000010000007F00000037372828282828020103030028282800AD
:404F8000000505001414140000C2010000000800C201000000080000A12000000000020000000000FF0000000000007D00FA0000400000000090D003000000000000000039
:404FC00000000000000000000000000000000000000000000000000000000000000000000000000000000000000000000000000000000000000000000000000000000000B1
:405000000000000000000000000000000000000000000000000000000000000000000000000000000000000000000000000000000000000000000000000000000000000070
:405040000000000000000000000000000000000000000000000000000000000000000000000000000000000000000000000000000000000000000000000000000000000030
:4050800000000000000000000000000000000000000000000000000000000000000000000000000000000000000000000000000000000000000000000000000000000000F0
:020000040003F7
:0200000480007A
:4000000001450040055200400B640040036500405B0201403E0301405B0401404D050140250601405707014010090140640A0140420B0140020D01405414014054150140B4
:400040005A1601404E170140041801400F190140601A01404E1B01400B400140104101400B420140074301400644014007450140054601400B47014007480140084901406E
:400080000D4C0140074D014009500140025101407E0220102E7F300131407C4002FF05FF12FF15FF22FF25FF830F8538861F87728B0F06FF84728B380018033F06060807FF
:4000C0000B300C050E02110F134014071A061C061D3C1E19201F2408260129152A182C102D2A2E013003330C34183503360437703E103F5440254103466047024818580464
:4001000059045A045C015D015F01610C62F0630C650C670C6840694C6A406B4C6C906D586F0C810A8304850387048F0594019503970C9B08A103A304B201B30FBB08BE046C
:40014000C065C104C6EBC70CC81CC9FFCAFFCBFFCEF0CF44D00CD401D604D804D904DA04DB04DC30DD33DF01E6C0EA40EB020460061007400B200E240F021540162817016D
:4001800019041CC01D201E022020220824022508270828802D402E202F0A30103208358036013741380839023B403D023F22408045284A084B404C01500C524053105608E7
:4001C0005710584059045B226102818085028C40C0F0C2E4C4F0CA31CC96CEABD061D21CD60FD801E004E240E608011C028003020640084009100B0C0D100E08100A1120DE
:400200001214130314131604181319091A0C1B101C402020210C2205231126402A402C032D142E043080311F320F33203430364038203A083E403F04580459045C325F019D
:4002400081A083018570870C8D7C900291BC9342997C9A039D4C9FB1A911AB80AD08AF04B001B104B378B402B580B703BF50C064C103C762C830D418D604D804D904DA04B1
:40028000DB04DC11DD31DF01E10CE2F0E30CE50CE70CE840E94CEA40EB4CEC90ED58EF0C00680110028008A20A200E881088122219141A811D201E80210A2428250527429A
:4002C00028802A402C402E412F08301031023611374039923C803D083F02470A4C04570B5D026101620264216504660A67087D207F04800A814082808508862087408A02B4
:400300008E1094209502960497409A409B089CD09D809E10A058A201A501A610A70AB018B332C00FC25FC40FCA39CCB5CEDDD0C0D220D680D8B0E289E603030207010A029B
:400340000B020F012A012C012E023102350136033B083E403F1140024105470A49FF4AFF4BFF4C024EF05602580459045A045B045C305D115E085F01624863A168F06AF0F7
:400380006CF06EF000020120030206040B041001111413801404160119201A111B061F402008210222092301251027902B8930803205331034043684374038283A403C087B
:4003C0003D803F214101421145244610480249104E0250405104560458105A405B4069A06B2070BC774078107A087E0281218304842087409280931096449A089C099D8332
:400400009E10A120A510A614A880AC04AD01B090B310B440B514C04BC202C4C6CA0DCC0FCEFED02BD21CD604DE10E204E404E608EE038040868090109F0AA280A420A504C5
:40044000AB08AD80B010B310B509E204E850EA20EE8000010110020E03AC060C0720080C0A030B031001120619141A031D0C1F71211022082340250927D029DC2B22331FD9
:40048000340F37E03A203B804003454049FF4A074BFF4C404D204EF04F055008580459045A045C225D025F01604061A862406320811C8208861C8710884089038A03910249
:4004C00094219503960E9B149C1C9D1C9E23A701A821A908AA16AB10B21AB30CB460B503B60FB710B820B928BA88BF54C002C540C9FFCA07CBFFCC40CD20CEF0CF05D0080F
:40050000D401D604D804D904DA04DB04DC03DD23DF01E040E1A8E240E3200128028004040502060809010B040D800E101080140819201C041D801E121F1820102280251865
:40054000270129292D202E08302032803408369938113B043C013D0A3E1041084240430144204514489049014A104B044D024F0156085C205E405F0A678081208301860866
:4005800087408E80A208B208C07EC2AAC448CA67CCFCCEE7D022D6F0D880E240EC80E004E608004C02A3044208F309020A0C0C011107124016331703184F19041A901B03B5
:4005C0001C081D032003210423032404280C29072CFF2D01307C340F35033680370438803A223F4056025713580459045B045C225D205F01849F94019626980A9A519C14D3
:400600009E49A89FAC80B080B207B418B660BE40C064C102C205C401C6CEC80CC9FFCAFFCBFFCC62CDA0CEF0CF41D00CD608D804DA04DB0FDC03DD13DF01E640E702E910E3
:40064000EA30EB10ED10EE10EF1201020210030A072008140A910D280F021069110215A019131A021C601DAA1F102210230229112B0A30573A104582464047104C014E044E
:40068000554057105B025D40658068016914702C72017E8080048210860188118C208D018F08900291E0929894409514960297209A109B309D909E40A101A280A303A413CB
:4006C000A540A710A840AC40AD01B050B501B620C02FC2EFC4CFCA0DCC0FCE04D0B0D230D611D810DE80E008E405E602E883EC20EE02000E010202010402050206080E0489
:4007000013011405160A180B19011A041D012501310132033302340C3908403145544620480B49FF4AFF4BFF4C024D204F0551105217580459045A045B045C115D115F0188
:4007400060406140628064806680800F8270847F870188338E73900C92739301941198739A0C9C229E80A008A404A80CB030B101B280B40FB64CBAA0BF01C026C103C5CE79
:40078000C60BC807C9FFCAFFCBFFCEF0CF44D00CD608D804D904DA04DB04DC03DD92DF01E6C0EA40EB02006003900408074109820A080B200E2410A819021A081B881E2437
:4007C0002080260627402E04320136103741380239083B013D013F08402042084620474049014A204B104D014F0850405620585060086180621063066C046D086F0176017E
:4008000091E8929093119516960C970498209A089B309C089D939E41A0A8A103A280A302A403A544A616A799B440B540C0BFC26FC40ECA40CCB1CEC2D056D204D60CD80C36
:40084000EE0239803F4059045F0124028E109050940296809B049F0AA420A504A801AA40B704EA40EC15EE0208080E0426022E0730043202340136083E404020410449FF60
:400880004AFF4BFF4DA04F045018528058045A045B045C045D445F01604062C06440654066C068C06AC06CC06EC080048102830C8402890C8A088B028F02910C92019302AE
:4008C000940195089606980799049D019E08A006A201A407A50EA806A90CB208B501B607B70EBA20BB80BE04BF10C060C105C501C602C750C825C9FFCAFFCBFFCDAFCE0FDC
:40090000CF04D018D418D604D804D904DA04DB04DC22DD24DF01E040E2C0E440E540E6C0E8C0EAC0ECC0EEC000100302064007240D800E440F201022151016201702192011
:400940001A911B201D801E24270A2D102E042F083480360837223C403D023E60428043204C204D204F80568057425D026540661067407002810283088648874089408A155D
:400980008B028D018E208F309050969098809A109B049F08A580A820AD80AE10B480B504B702C073C2F0C475CA60CCF0CEB0D005D230D680D8B0E010E220E450E620E810C8
:4009C000EA20EC600E2032103302350236403B406680C220CCF0CE10D680304032023580850286028E10962097409D029E80A210A640A702CC70E240E61085808680884064
:400A000097409C409D809E80A210A640A702E250830284049740A210A640A702E230540861047C08D402D802DE013820801084209C089D04A408CE0846109C289D04A40890
:400A4000D001038008200B400F8083409C289D049E10A408C008C20E270197409804A210AE40C820EE407804874097409804B210B301DE40E640081058048C089E10A408E3
:400A8000A808A904AF40B780C202D602E408EA0288049C04B010B210E401EA04EC04000E080A0A0E0C0C101E11011A0E1B011C1400AB01FF20000000001800000108460098
:400AC0000A00914300DC002200E7001814FF890000100000009C00613F0000003F00000400040000181F20800720C05800200002000040046305040001000C0E14FFFFFFD8
:400B000062A0F0410C00000000000211040404043232000100000000000040020010301000101012000000000000000000000000000000004000000000000000C00000002A
:400B4000800040808000800000000000007F7F000000000010002010100010000100000000007F000000000000414100410010005B0118010000000000000000000000000F
:400B80000000000000000000000000000000000000000000000000000000000000000000000000000000000000000000000000000000000000000000000000000000000035
:400BC00000000000000000000000000000000000000000000000000000000000000000000000000000000000000000000000000000000000000000000000000000000000F5
:400C000000000000000000000000000000000000000000000000000000000000000000000000000000000000000000000000000000000000000000000000000000000000B4
:400C40000000000000000000000000000000000000000000000000000000000000000000000000000000000000000000000000000000000000000000000000000000000074
:0200000490006A
:0400000000004005B7
:0200000490105A
:04000000BC90ACAF55
:0200000490303A
:02000000429923
:0200000490402A
:4000000000000000000000000000000000000000000000000000000000000000000000000000000000000000000000000000000000000000000000000000000000000000C0
:400040000000000000000000000000000000000000000000000000000000000000000000000000000000000000000000000000000000000000000000000000000000000080
:400080000000000000000000000000000000000000000000000000000000000000000000000000000000000000000000000000000000000000000000000000000000000040
:4000C0000000000000000000000000000000000000000000000000000000000000000000000000000000000000000000000000000000000000000000000000000000000000
:0200000490501A
:0C00000000012E12306900012E33730243
:00000001FF